S0120000354B64726976655631312E73726563C0
S1130000FDC000001AC1000018C1000016C10000A4
S113001014C1000012C1000010C100000EC1000094
S11300200CC100000AC1000008C1000006C10000A4
S113003004C1000002C10000D9C5000004C60000CC
S11300402FC600005AC6000085C60000B0C60000D6
S1130050DBC6000006C7000031C700005CC7000013
S1130060ECC00000EAC00000E8C00000E6C00000E8
S1130070E4C00000E2C00000E0C00000DEC00000F8
S1130080DCC00000DAC00000D8C00000D6C0000008
S1130090D4C00000D2C00000D0C00000CEC0000018
S11300A0CCC00000CAC00000C8C00000C6C0000028
S11300B0C4C00000C2C00000C0C000000C947A0993
S11300C00C94A7090C94D4090C94010A0C942E0ADC
S11300D00C945B0A0C94880A0C94B50A0C94E20AFA
S11300E00C940F0BAAC00000A8C00000A6C000001A
S11300F0A4C00000A2C00000A0C000009EC0000078
S11301009CC000009AC0000098C0000096C0000087
S113011094C0000092C0000090C000008EC0000097
S11301208CC000008AC0000088C0000086C00000A7
S113013084C000001DC7000048C7000073C700004A
S11301409EC70000C9C70000F4C700000C94C6088D
S11301500C94F3080C9420090C944D096EC0000013
S11301606CC000006AC0000068C0000066C00000E7
S113017064C0000062C0000060C000005EC00000F7
S11301805CC000005AC0000058C0000056C0000007
S113019054C0000052C0000050C000004EC0000017
S11301A04CC000004AC0000048C0000046C0000027
S11301B00C943C0B0C94690B0C94960B0C94C30B91
S11301C00C94F00B0C941D0C38C0000036C00000D9
S11301D034C0000032C0000030C000000C94901203
S11301E02CC000000C94C81228C0000026C00000D7
S11301F024C0000022C0000020C0000011241FBE43
S1130200CFEFDFE2DEBFCDBF10E2A0E0B0E2E6E870
S1130210FCE200E00BBF02C007900D92AC31B107C5
S1130220D9F722E2ACE1B0E201C01D92A832B207D4
S1130230E1F70E94F9120C944116E2CEA8E1B0E075
S1130240E4E2F1E00C9420166D8B7E8B8F8B988FFB
S1130250298B3A8B4B8B5C8BBE01675F7F4FCE0142
S1130260459669D1BE016F5F7F4FCE01419663D140
S11302708985823050F08981823038F0BE016F5F09
S11302807F4FCE010996C6D101C08FEF6896E2E098
S11302900C943916A8E1B0E0E0E5F1E00C942016E6
S11302A06D8B7E8B8F8B988F298B3A8B4B8B5C8BD2
S11302B0BE01675F7F4FCE0145963DD1BE016F5FA2
S11302C07F4FCE01419637D18985823050F08981A4
S11302D0823038F0BE016F5F7F4FCE0109969AD10C
S11302E001C081E06896E2E00C943916A8E0B0E021
S11302F0ECE7F1E00C941E1623E029838B019C01AA
S1130300002737FD0395112722273327402F0A831F
S1130310611571058105910519F482E0898335C061
S11303202EE130E02B833C83442371F06115710589
S1130330810520E8920769F1002711279801061B1F
S1130340170B280B390B02C08B019C01C901B801A2
S11303500E94F7150197181619062CF00D831E83B9
S11303602F83388712C0082E04C0000F111F221FCC
S1130370331F0A94D2F70D831E832F8338872EE10F
S113038030E0281B390B2B833C83CE01019609D026
S113039004C060E070E080E09FEC2896E4E00C94F8
S11303A037160F931F93CF93DF93DC0114964D916F
S11303B05D916D917C9117971196EC9111978C91A9
S11303C0823020F460618FEF90E0A6C0843009F49D
S11303D09EC0823009F495C041155105610571052F
S11303E009F492C012962D913C91139722388FEF05
S11303F038070CF058C0C2E8DFEFC21BD30BCA3178
S1130400D1056CF58A019B010C2E04C03695279505
S1130410179507950A94D2F781E090E0A0E0B0E048
S11304200C2E04C0880F991FAA1FBB1F0A94D2F771
S11304300197A109B10984239523A623B72341E099
S113044050E060E070E0892B8A2B8B2B19F440E09C
S113045050E0BA01402B512B622B732B03C040E0B8
S113046050E0BA01DB01CA018F779927AA27BB277D
S113047080349105A105B10539F447FF09C0405CFA
S11304805F4F6F4F7F4F04C0415C5F4F6F4F7F4F93
S113049081E090E041155105610520E4720748F5BB
S11304A080E090E026C0203831058CF5DB01CA01DC
S11304B08F779927AA27BB2780349105A105B10519
S11304C039F447FF09C0405C5F4F6F4F7F4F04C052
S11304D0415C5F4F6F4F7F4F77FD04C0C901815866
S11304E09F4F07C07695679557954795C9018058E2
S11304F09F4F97E076956795579547959A95D1F7CD
S11305000BC080E090E005C080E090E005C08FEF74
S113051090E040E050E0BA01982F9695E0FB97F9FF
S1130520362F80FB37F9642F752F832FDF91CF91FE
S11305301F910F910895CF92DF92EF92DC01FB019E
S1130540CC901196DC90119712968C9112973FE7FC
S1130550E32EE8226E2DA60170E0982F991F9927AB
S1130560991F13962C91822F880F892B90E027FBDB
S1130570222720F92183009729F5411551056105AA
S1130580710511F482E027C082E89FEF8283938390
S113059027E0440F551F661F771F2A95D1F783E084
S11305A0808309C0440F551F661F771F8281938182
S11305B001978283938341155105610580E478078F
S11305C088F320C08F3F910579F4411551056105E9
S11305D0710519F484E0808319C0E4FE03C081E04E
S11305E0808310C010820EC08F5791098283938339
S11305F083E0808387E0440F551F661F771F8A9529
S1130600D1F770644483558366837783EF90DF90DA
S1130610CF900895CF93FC01DB019081923008F4D0
S113062052C08C91823008F44EC0943071F48430FE
S113063039F411962C9130E08181281B310948C08E
S11306408181882309F43FC03BC0843029F411968A
S11306508C91811138C034C0923019F48230B9F7CA
S113066035C0823069F3C18111968C911197C813FA
S11306701DC02281338112968D919C91139782170C
S113068093070CF413C0281739070CF417C04481DE
S113069055816681778114968D919D910D90BC91C1
S11306A0A02D84179507A607B70718F4C11108C031
S11306B00AC0481759076A077B0740F4C11103C0F1
S11306C02FEF3FEF05C021E030E002C020E030E032
S11306D0C901CF910895CF93DF9387E0E0EAF0E07A
S11306E082833BD0A0EAB6E030E111963C931197A7
S11306F020E211962C931197E0E8F6E081E08283E2
S113070092E0928384E0828311969C931197C0E6D1
S1130710D6E0898398E0998312968C931297119668
S11307209C9380E4818390E89183E0E4F6E0318354
S1130730218382838093B00088E1808B9183DF9151
S1130740CF910895E0E5F0E09BEC92839FB7F89495
S11307502081822B80839FBF08958FEF8093700048
S1130760809371008093720080937300809374006F
S1130770809375008093760063E081E490E0DFD19C
S11307808091510084FF0DC064E080E490E0D7D1F3
S11307909FB7F894809150008E7F809350009FBF44
S11307A008958091510083FF0CC09FB7F89488ECA2
S11307B080935500809150008061809350009FBFCA
S11307C007C088E0BFDF8091510083FFFCCFEDCFED
S11307D08091510084FFFCCFD7CF2FB7F894FC0150
S11307E0E059FF4F60958081862380832FBF089551
S11307F02FB7F894FC01E059FF4F8081862B80834A
S11308002FBF0895CF93DF93EC01C03C88E0D80755
S113081021F468E083E090E00FC0C03C89E0D80791
S113082021F468E084E090E007C0C03C8AE0D80787
S113083021F468E085E090E0D0DF888180618883DE
S1130840DF91CF910895FF920F931F93CF93DF937E
S1130850EC01F42EB901A80100E018E428EE31E01F
S11308607ED187FD0AC0888194E0F99EA0011124FD
S11308704C705527837F842B8883DF91CF911F9100
S11308800F91FF900895811522E0920761F4809101
S11308901C20982F9F5F90931C20811113C062E04D
S11308A081E090E00EC08034924061F480911D207C
S11308B0982F9F5F90931D20811104C062E082E015
S11308C090E08BCF0895811522E0920759F480912E
S11308D01C20815080931C20811112C062E081E0B1
S11308E090E00DC08034924059F480911D208150D5
S11308F080931D20811104C062E082E090E078CFF3
S113090008951F93CF93DF93EC011FB7F894BBDFD7
S11309108881816088831FBF9FB7F894E0E7F0E285
S113092080818F5F80839FBFDF91CF911F91089556
S1130930682F70E082E009C1CF93DF9381E2F8DF92
S1130940D82F80E0C82F80E2F3DFC82BCE01DF91DF
S1130950CF910895DF92EF92FF920F931F93CF935D
S1130960DF93EC018B01C11582E0D80719F4E4DFB1
S11309707C010DC0C034E2E0DE0731F585E2D8DF4A
S1130980F82E84E2D5DF3F2D20E07901E82ADFB696
S1130990F894CE0178DF288182E08883EC86FD8696
S11309A0F80185819681888F998F82818A838481D9
S11309B08C8383818B838181898321708081282B1F
S11309C02883CE0180DFDFBEDF91CF911F910F918D
S11309D0FF90EF90DF900895FF920F931F93CF93B2
S11309E0DF93EC018B01FFB6F8944DDF8881807CA6
S11309F0F8018083888D998D858396838A8182838B
S1130A008C8184838B81838389818183CE015BDFA5
S1130A10FFBEDF91CF911F910F91FF900895AF9288
S1130A20BF92DF92EF92FF920F931F93CF93DF93C6
S1130A301F92CDB7DEB77C018A01862F8370962F73
S1130A4021F49695969582E001C080E090FF8F5F37
S1130A50570190E2A90EB11CE8E08E9FA00CB11CD6
S1130A601124DFB6F894C70169830DDFF801808192
S1130A70F5018083F8018281F5018283F801818187
S1130A80F5018183698160FF04C0F8018381F50168
S1130A908683C70118DFDFBE0F90DF91CF911F91CE
S1130AA00F91FF90EF90DF90BF90AF900895AF92B9
S1130AB0BF92DF92EF92FF920F931F93CF93DF9336
S1130AC01F92CDB7DEB77C018A01862F8370962FE3
S1130AD021F49695969582E001C080E090FF8F5FA7
S1130AE0570190E2A90EB11CE8E08E9FA00CB11C46
S1130AF01124DFB6F894C7016983C5DEF50180814E
S1130B00F8018083F5018281F8018283F5018181F6
S1130B10F8018183698160FF04C0F5018681F801D1
S1130B208383C701D0DEDFBE0F90DF91CF911F9189
S1130B300F91FF90EF90DF90BF90AF9008951BBE90
S1130B40FC0128ED24BF608308954091CA01E62F7B
S1130B50F72F8093CA0184914093CA010895CF92DC
S1130B60DF92EF92FF920F931F93CF93DF93EC01E9
S1130B706A017B01CB01BA016150710981099109B4
S1130B80600F711F821F931FA70196010E949F157A
S1130B902138310541055105F8F4213460F421323E
S1130BA060F4213160F4293060F4253060F423309E
S1130BB060F080E00BC083E009C082E007C082E8F7
S1130BC005C081E003C081E801C080E898819C777A
S1130BD0982B988381E001C08FEFDF91CF911F9113
S1130BE00F91FF90EF90DF90CF9008951F920F9296
S1130BF00FB60F9211240BB60F922F933F934F937E
S1130C005F936F937F938F939F93AF93BF93EF9370
S1130C10FF93E0911E20F0911F20309709F0099571
S1130C20FF91EF91BF91AF919F918F917F916F91C0
S1130C305F914F913F912F910F900BBE0F900FBE7C
S1130C400F901F9018951F920F920FB60F921124B8
S1130C500BB60F922F933F934F935F936F937F93B2
S1130C608F939F93AF93BF93EF93FF93E0912020D3
S1130C70F0912120309709F00995FF91EF91BF91F0
S1130C80AF919F918F917F916F915F914F913F9120
S1130C902F910F900BBE0F900FBE0F901F901895C1
S1130CA01F920F920FB60F9211240BB60F922F932F
S1130CB03F934F935F936F937F938F939F93AF93E0
S1130CC0BF93EF93FF93E0912220F091232030977C
S1130CD009F00995FF91EF91BF91AF919F918F9189
S1130CE07F916F915F914F913F912F910F900BBE28
S1130CF00F900FBE0F901F9018951F920F920FB672
S1130D000F9211240BB60F922F933F934F935F933F
S1130D106F937F938F939F93AF93BF93EF93FF93BF
S1130D20E0912420F0912520309709F00995FF9156
S1130D30EF91BF91AF919F918F917F916F915F914F
S1130D404F913F912F910F900BBE0F900FBE0F90BC
S1130D501F9018951F920F920FB60F9211240BB685
S1130D600F922F933F934F935F936F937F938F9340
S1130D709F93AF93BF93EF93FF93E0912620F0915D
S1130D802720309709F00995FF91EF91BF91AF911A
S1130D909F918F917F916F915F914F913F912F918F
S1130DA00F900BBE0F900FBE0F901F9018951F92BF
S1130DB00F920FB60F9211240BB60F922F933F93FD
S1130DC04F935F936F937F938F939F93AF93BF934F
S1130DD0EF93FF93E0912820F0912920309709F0B8
S1130DE00995FF91EF91BF91AF919F918F917F9161
S1130DF06F915F914F913F912F910F900BBE0F9088
S1130E000FBE0F901F9018951F920F920FB60F925E
S1130E1011240BB60F922F933F934F935F936F93CD
S1130E207F938F939F93AF93BF93EF93FF93E0913F
S1130E302A20F0912B20309709F00995FF91EF912A
S1130E40BF91AF919F918F917F916F915F914F91DE
S1130E503F912F910F900BBE0F900FBE0F901F90DC
S1130E6018951F920F920FB60F9211240BB60F9282
S1130E702F933F934F935F936F937F938F939F939E
S1130E80AF93BF93EF93FF93E0912C20F0912D202B
S1130E90309709F00995FF91EF91BF91AF919F9120
S1130EA08F917F916F915F914F913F912F910F900F
S1130EB00BBE0F900FBE0F901F9018951F920F92AC
S1130EC00FB60F9211240BB60F922F933F934F93AB
S1130ED05F936F937F938F939F93AF93BF93EF939E
S1130EE0FF93E0912E20F0912F20309709F009957F
S1130EF0FF91EF91BF91AF919F918F917F916F91EE
S1130F005F914F913F912F910F900BBE0F900FBEA9
S1130F100F901F9018951F920F920FB60F921124E5
S1130F200BB60F922F933F934F935F936F937F93DF
S1130F308F939F93AF93BF93EF93FF93E0913020F0
S1130F40F0913120309709F00995FF91EF91BF910D
S1130F50AF919F918F917F916F915F914F913F914D
S1130F602F910F900BBE0F900FBE0F901F901895EE
S1130F701F920F920FB60F9211240BB60F922F935C
S1130F803F934F935F936F937F938F939F93AF930D
S1130F90BF93EF93FF93E0913220F0913320309789
S1130FA009F00995FF91EF91BF91AF919F918F91B6
S1130FB07F916F915F914F913F912F910F900BBE55
S1130FC00F900FBE0F901F9018951F920F920FB69F
S1130FD00F9211240BB60F922F933F934F935F936D
S1130FE06F937F938F939F93AF93BF93EF93FF93ED
S1130FF0E0913420F0913520309709F00995FF9164
S1131000EF91BF91AF919F918F917F916F915F917C
S11310104F913F912F910F900BBE0F900FBE0F90E9
S11310201F9018951F920F920FB60F9211240BB6B2
S11310300F922F933F934F935F936F937F938F936D
S11310409F93AF93BF93EF93FF93E0913620F0917A
S11310503720309709F00995FF91EF91BF91AF9137
S11310609F918F917F916F915F914F913F912F91BC
S11310700F900BBE0F900FBE0F901F9018951F92EC
S11310800F920FB60F9211240BB60F922F933F932A
S11310904F935F936F937F938F939F93AF93BF937C
S11310A0EF93FF93E0913820F0913920309709F0C5
S11310B00995FF91EF91BF91AF919F918F917F918E
S11310C06F915F914F913F912F910F900BBE0F90B5
S11310D00FBE0F901F9018951F920F920FB60F928C
S11310E011240BB60F922F933F934F935F936F93FB
S11310F07F938F939F93AF93BF93EF93FF93E0916D
S11311003A20F0913B20309709F00995FF91EF9137
S1131110BF91AF919F918F917F916F915F914F910B
S11311203F912F910F900BBE0F900FBE0F901F9009
S113113018951F920F920FB60F9211240BB60F92AF
S11311402F933F934F935F936F937F938F939F93CB
S1131150AF93BF93EF93FF93E0913C20F0913D2038
S1131160309709F00995FF91EF91BF91AF919F914D
S11311708F917F916F915F914F913F912F910F903C
S11311800BBE0F900FBE0F901F9018951F920F92D9
S11311900FB60F9211240BB60F922F933F934F93D8
S11311A05F936F937F938F939F93AF93BF93EF93CB
S11311B0FF93E0913E20F0913F20309709F009958C
S11311C0FF91EF91BF91AF919F918F917F916F911B
S11311D05F914F913F912F910F900BBE0F900FBED7
S11311E00F901F9018951F920F920FB60F92112413
S11311F00BB60F922F933F934F935F936F937F930D
S11312008F939F93AF93BF93EF93FF93E09140200D
S1131210F0914120309709F00995FF91EF91BF912A
S1131220AF919F918F917F916F915F914F913F917A
S11312302F910F900BBE0F900FBE0F901F9018951B
S11312401F920F920FB60F9211240BB60F922F9389
S11312503F934F935F936F937F938F939F93AF933A
S1131260BF93EF93FF93E0914220F0914320309796
S113127009F00995FF91EF91BF91AF919F918F91E3
S11312807F916F915F914F913F912F910F900BBE82
S11312900F900FBE0F901F9018951F920F920FB6CC
S11312A00F9211240BB60F922F933F934F935F939A
S11312B06F937F938F939F93AF93BF93EF93FF931A
S11312C0E0914420F0914520309709F00995FF9171
S11312D0EF91BF91AF919F918F917F916F915F91AA
S11312E04F913F912F910F900BBE0F900FBE0F9017
S11312F01F9018951F920F920FB60F9211240BB6E0
S11313000F922F933F934F935F936F937F938F939A
S11313109F93AF93BF93EF93FF93E0914620F09197
S11313204720309709F00995FF91EF91BF91AF9154
S11313309F918F917F916F915F914F913F912F91E9
S11313400F900BBE0F900FBE0F901F9018951F9219
S11313500F920FB60F9211240BB60F922F933F9357
S11313604F935F936F937F938F939F93AF93BF93A9
S1131370EF93FF93E0914820F0914920309709F0D2
S11313800995FF91EF91BF91AF919F918F917F91BB
S11313906F915F914F913F912F910F900BBE0F90E2
S11313A00FBE0F901F9018951F920F920FB60F92B9
S11313B011240BB60F922F933F934F935F936F9328
S11313C07F938F939F93AF93BF93EF93FF93E0919A
S11313D04A20F0914B20309709F00995FF91EF9145
S11313E0BF91AF919F918F917F916F915F914F9139
S11313F03F912F910F900BBE0F900FBE0F901F9037
S113140018951F920F920FB60F9211240BB60F92DC
S11314102F933F934F935F936F937F938F939F93F8
S1131420AF93BF93EF93FF93E0914C20F0914D2045
S1131430309709F00995FF91EF91BF91AF919F917A
S11314408F917F916F915F914F913F912F910F9069
S11314500BBE0F900FBE0F901F9018951F920F9206
S11314600FB60F9211240BB60F922F933F934F9305
S11314705F936F937F938F939F93AF93BF93EF93F8
S1131480FF93E0914E20F0914F20309709F0099599
S1131490FF91EF91BF91AF919F918F917F916F9148
S11314A05F914F913F912F910F900BBE0F900FBE04
S11314B00F901F9018951F920F920FB60F92112440
S11314C00BB60F922F933F934F935F936F937F933A
S11314D08F939F93AF93BF93EF93FF93E09150202B
S11314E0F0915120309709F00995FF91EF91BF9148
S11314F0AF919F918F917F916F915F914F913F91A8
S11315002F910F900BBE0F900FBE0F901F90189548
S11315101F920F920FB60F9211240BB60F922F93B6
S11315203F934F935F936F937F938F939F93AF9367
S1131530BF93EF93FF93E0915220F09153203097A3
S113154009F00995FF91EF91BF91AF919F918F9110
S11315507F916F915F914F913F912F910F900BBEAF
S11315600F900FBE0F901F9018951F920F920FB6F9
S11315700F9211240BB60F922F933F934F935F93C7
S11315806F937F938F939F93AF93BF93EF93FF9347
S1131590E0915420F0915520309709F00995FF917E
S11315A0EF91BF91AF919F918F917F916F915F91D7
S11315B04F913F912F910F900BBE0F900FBE0F9044
S11315C01F9018951F920F920FB60F9211240BB60D
S11315D00F922F933F934F935F936F937F938F93C8
S11315E09F93AF93BF93EF93FF93E0915620F091B5
S11315F05720309709F00995FF91EF91BF91AF9172
S11316009F918F917F916F915F914F913F912F9116
S11316100F900BBE0F900FBE0F901F9018951F9246
S11316200F920FB60F9211240BB60F922F933F9384
S11316304F935F936F937F938F939F93AF93BF93D6
S1131640EF93FF93E0915820F0915920309709F0DF
S11316500995FF91EF91BF91AF919F918F917F91E8
S11316606F915F914F913F912F910F900BBE0F900F
S11316700FBE0F901F9018951F920F920FB60F92E6
S113168011240BB60F922F933F934F935F936F9355
S11316907F938F939F93AF93BF93EF93FF93E091C7
S11316A05A20F0915B20309709F00995FF91EF9152
S11316B0BF91AF919F918F917F916F915F914F9166
S11316C03F912F910F900BBE0F900FBE0F901F9064
S11316D018951F920F920FB60F9211240BB60F920A
S11316E02F933F934F935F936F937F938F939F9326
S11316F0AF93BF93EF93FF93E0915C20F0915D2053
S1131700309709F00995FF91EF91BF91AF919F91A7
S11317108F917F916F915F914F913F912F910F9096
S11317200BBE0F900FBE0F901F9018951F920F9233
S11317300FB60F9211240BB60F922F933F934F9332
S11317405F936F937F938F939F93AF93BF93EF9325
S1131750FF93E0915E20F0915F20309709F00995A6
S1131760FF91EF91BF91AF919F918F917F916F9175
S11317705F914F913F912F910F900BBE0F900FBE31
S11317800F901F9018951F920F920FB60F9211246D
S11317900BB60F922F933F934F935F936F937F9367
S11317A08F939F93AF93BF93EF93FF93E091602048
S11317B0F0916120309709F00995FF91EF91BF9165
S11317C0AF919F918F917F916F915F914F913F91D5
S11317D02F910F900BBE0F900FBE0F901F90189576
S11317E01F920F920FB60F9211240BB60F922F93E4
S11317F03F934F935F936F937F938F939F93AF9395
S1131800BF93EF93FF93E0916220F09163203097B0
S113181009F00995FF91EF91BF91AF919F918F913D
S11318207F916F915F914F913F912F910F900BBEDC
S11318300F900FBE0F901F9018951F920F920FB626
S11318400F9211240BB60F922F933F934F935F93F4
S11318506F937F938F939F93AF93BF93EF93FF9374
S1131860E0916420F0916520309709F00995FF918B
S1131870EF91BF91AF919F918F917F916F915F9104
S11318804F913F912F910F900BBE0F900FBE0F9071
S11318901F901895CF93CFB7F894811528E092073D
S11318A011F461E005C0803428E0920749F462E055
S11318B083E090E00E94ED0364E083E090E031C0B7
S11318C0811529E0920711F461E005C0803429E014
S11318D0920749F462E084E090E00E94ED0364E042
S11318E084E090E01EC081152AE0920711F461E0C3
S11318F005C080342AE0920749F462E085E090E074
S11319000E94ED0364E085E090E00BC081159B40EC
S113191091F461E086E090E00E94ED0364E086E0EB
S113192090E00E94ED039FB7F894809170208F5F40
S1131930809370209FBFCFBFCF910895811528E079
S1131940920729F460931E2070931F200895803419
S113195028E0920729F460932A2070932B2008959D
S1131960811529E0920729F4609332207093332083
S11319700895803429E0920729F460933E207093FF
S11319803F20089581152AE0920729F460934620A8
S113199070934720089580342AE0920729F46093D5
S11319A0522070935320089581159B4021F4609335
S11319B05A2070935B200895009709F4CDC0803CB1
S11319C0910511F460E105C0811524E0920721F42A
S11319D064E080E090E0BEC0803821E0920711F41A
S11319E062E0F7CF811521E0920711F461E0F1CFB5
S11319F0803823E0920711F461E00BC0803923E0C2
S1131A00920711F461E013C0811522E0920721F4DA
S1131A1062E081E090E09EC0803422E0920711F4FD
S1131A2062E005C0803223E0920721F464E082E0A2
S1131A3090E090C0811528E0920711F461E081C024
S1131A40811529E0920711F461E06DC081152AE047
S1131A50920711F461E07CC081152BE0920711F428
S1131A6061E053C0803428E0920711F462E069C059
S1131A70803429E0920711F462E055C080342AE0F2
S1131A80920711F462E064C0803928E0920711F4EF
S1131A9064E057C0803929E0920711F464E043C040
S1131AA080392AE0920711F464E052C080392BE0B7
S1131AB0920711F464E029C0803C28E0920711F4F5
S1131AC068E03FC0803C29E0920711F468E02BC035
S1131AD0803C2AE0920711F468E03AC0803A28E09A
S1131AE0920711F460E12DC0803A29E0920711F4C5
S1131AF060E119C0803A2AE0920711F460E128C03D
S1131B00803A2BE0920721F460E186E090E022C065
S1131B10803B28E0920711F460E213C0803B29E087
S1131B20920721F460E284E090E014C0803B2AE054
S1131B30920711F460E20CC0803824E0920721F48B
S1131B4060E483E090E006C0803A944029F460E4C5
S1131B5085E090E00C94ED0308958F929F92AF92EC
S1131B60BF92CF92DF92EF92FF920F931F93CF9386
S1131B70DF93EC016A017B0148015901B901A80115
S1131B80A3E07695679557954795AA95D1F7D9011E
S1131B90C80116E1B695A795979587951A95D1F73B
S1131BA02C8122FD08C07695679557954795B69583
S1131BB0A795979587954C155D056E057F0508F4E7
S1131BC09BC0C816D906EA06FB0608F495C08C81AA
S1131BD082FD04C0CC0CDD1CEE1CFF1CC501B4014D
S1131BE0A7019601ACD78FEF90E0A0E0B0E019EF29
S1131BF0281739074A075B0758F0880F991FAA1F4F
S1131C00BB1F1D3F0CF481601F5F173089F74BC069
S1131C1017FF49C0D701C60103E0880F991FAA1F07
S1131C20BB1F0A95D1F7881A990AAA0ABB0A812F01
S1131C30992787FD90951E3FE4F46DEF7FEF681BB5
S1131C40790BA501940104C0220F331F441F551FB3
S1131C506A95D2F7CA01B90146015701B694A7940F
S1131C6097948794680D791D8A1D9B1DA701960181
S1131C7018C09C012D5F3F4FD701C60104C0880FD7
S1131C80991FAA1FBB1F2A95D2F79C01AD01BC0165
S1131C90CD019695879577956795680D791D8A1D71
S1131CA09B1D4DD720C0212F332727FD30952D5F55
S1131CB03F4FD701C60104C0880F991FAA1FBB1F3D
S1131CC02A95D2F79C01AD01BC01CD01969587956B
S1131CD077956795680D791D8A1D9B1D30D7215016
S1131CE0310941095109832F8F701295107F812B7F
S1131CF08F832E8381E001C080E0DF91CF911F911B
S1131D000F91FF90EF90DF90CF90BF90AF909F9096
S1131D108F9008950F931F93CF93DF93EC018B0162
S1131D204BDE8D818F738D83F80186819481892B9D
S1131D309085992311F098E001C090E0892B8D8360
S1131D40F801408151816281738100E018E428EE3A
S1131D5031E0CE0102DF9C8198609C839C8190617C
S1131D609C83DF91CF911F910F9108956150710968
S1131D7081099109D9F7089580916A208823E1F3B4
S1131D8090916B20E92FF0E0E453FE4D80819F5F3A
S1131D9090936B2090916B20903411F410926B20EF
S1131DA090916A20915090936A20282F332727FD21
S1131DB03095932F0895909166209A3FE1F3F8941B
S1131DC090916620911104C09091A10B95FD16C0CD
S1131DD090916820E92FF0E0E153FF4D80839F5FED
S1131DE090936820809168208A3F11F410926820B3
S1131DF0809166208F5F8093662002C08093A00B41
S1131E00789480E090E00895682760FF02C08EE532
S1131E1001C080E061FF02C09CEB892762FF02C021
S1131E2091E6892763FF02C092EC892764FF02C010
S1131E309DE9892765FF02C093E2892766FF02C0F6
S1131E4096E4892767FF02C09CE8892708958F924A
S1131E509F92AF92BF92EF92FF920F931F93CF93F3
S1131E60DF9380912402909125022091CD2030911E
S1131E70CE20821B930B8093B6209093B7202091A1
S1131E802C0230912D024091122250911322241BD6
S1131E90350B20938220309383206091340270911B
S1131EA0350260931422709315224091AA20509118
S1131EB0AB2057FD08C03195219531092093B820F6
S1131EC03093B92004C08093B8209093B9208091B6
S1131ED0CC20982F9F5F9093CC20882309F436C19F
S1131EE01092CC208091200A9091210A809387201F
S1131EF0909388202091912030919220AC01421B34
S1131F00530B2091A2203091A320240F351F20933E
S1131F10A2203093A3208093912090939220C0918B
S1131F20B820D091B9208091A4209091A5208C0F45
S1131F309D1F8093182290931922E0916D20F091B7
S1131F406E20E81BF90BE093C420F093C520CF0169
S1131F50AA2797FDA095BA2F009198201091992057
S1131F6020919A2030919B20800F911FA21FB31FB4
S1131F70813829EA920723E0A207B10524F080E81A
S1131F8099EAA3E0B0E08C019D01003886E51807CA
S1131F908CEF28078FEF380724F400E816E52CEFC0
S1131FA03FEF009398201093992020939A20309328
S1131FB09B20683582E078073CF480E093E08093CE
S1131FC0BA209093BB200CC0A3E075956795AA95A1
S1131FD0E1F780E890E7A0D56093BA207093BB2026
S1131FE0E090BA20F090BB20552737FD5A95432F37
S1131FF0322F212FA0E0BCE0DCD5872E982EA92E0D
S1132000BB24A7FCBA9420E035E0DF01CCD5BB2784
S113201097FDBA95A92F982F872F9401280F391F60
S1132020D701AFD5BB2797FDBA95A92F982F872F36
S1132030813028E19207A105B10524F080E098E100
S1132040A0E0B0E0811528EE92072FEFA207B207B7
S113205024F480E098EEAFEFBFEF9C018093AA20B8
S11320609093AB2010921C2210921D221092C62035
S11320701092C72080918F20882371F112161306C5
S1132080A4F4C90180589F4F80931C2290931D2271
S113209020583E4F209377203093782080E890E0BA
S11320A08093C6209093C72017C021153105A1F055
S11320B080E890E080931C2290931D22821B930B56
S11320C08093C6209093C72080E891E0821B930BF5
S11320D0809377209093782080911C2290911D22E8
S11320E080932C0990932D098091C6209091C7204C
S11320F080932E0990932F098091772090917820D6
S1132100809328099093290980911E2290911F227F
S11321108C0F9D1F80931E2290931F2220911A22C0
S1132120322F3F5F30931A222032E8F024E0959555
S113213087952A95E1F78093CA219093CB21109239
S11321401A2210921E2210921F220DC08091772015
S1132150909178208058934F60E079E1DDD48093AA
S11321602809909329098091B8209091B9208093EF
S1132170A4209093A5208091932081110FC081E029
S11321808093932080913C0290913D0280939E2005
S113219090939F2089E3809339020DC0109293207D
S11321A080913C0290913D0280939C2090939D20CD
S11321B089E280933902DF91CF911F910F91FF90B3
S11321C0EF90BF90AF909F908F90089510929820B9
S11321D01092992010929A2010929B2010926D20B8
S11321E010926E2080E1E0EAF6E0868310928F2060
S11321F008958091C9208A3F20F48F5F8093C9207D
S113220005C01092C92080E28093A70680918120A6
S1132210843620F48F5F8093812005C084E6809308
S113222081201092112280919E2090919F20803FC6
S1132230910544F480919020853640F48F5F80931B
S1132240902004C0109290201092C320809190207E
S1132250843628F01092112281E08093C32080916B
S1132260CA209091CB208130910509F447C0823077
S1132270910509F456C0892B09F09CC080E1809334
S113228046068091A7209091A82010928E20843039
S1132290910554F49C01322F2227330F330F330F4F
S11322A03068309389200EC020E820938920209143
S11322B08420309185202115310521F020938E2032
S11322C0309389200196853091052CF48093A720C2
S11322D09093A82008C01092A7201092A8201092D2
S11322E0842010928520809189208093C30881E006
S11322F090E08093CA209093CB205CC08091C20868
S113230087FF58C08091C3088093962080918E20C7
S11323108093C30882E090E08093CA209093CB20FE
S113232049C08091C20887FF45C02091C30820930B
S11323300E229091962080E0822B8093B42090937B
S1132340B52020E120934506019689F410927F2060
S11323501092802010927D2010927E2010927B207B
S113236010927C201092792010927A202FDF2091F5
S1132370B4203091B52037FD19C0C901882798775A
S1132380892F99278695869586958430910574F4CE
S11323904091752050917620452B41F4FC01EE0FBD
S11323A0FF1FE758FF4D3770208331831092CA20F6
S11323B01092CB209091112280918F20992309F4BF
S11323C0A7C08111A8C04091A7205091A820411511
S11323D0510571F480917F2090918020019741F004
S11323E01092C82081E098E1809384209093852006
S11323F08091C92181114DC080917F2090918020CE
S1132400019709F046C0E091C820E11108C010927C
S113241016221092172210920C2210920D22209153
S1132420B6203091B7208091162290911722280F60
S1132430391F209316223093172280918220909185
S1132440832060910C2270910D22860F971F809338
S11324500C2290930D22EF30B8F0B4E03695279516
S1132460BA95E1F72093CD203093CE2024E09695C1
S113247087952A95E1F7809312229093132281E0A5
S11324808093C9211092C8208091C8208F5F8093C7
S1132490C820452BA1F48091842090918520892B1C
S11324A071F480917D2083FD0AC08091C921882325
S11324B031F088E892E180938420909385201092F3
S11324C098201092992010929A2010929B2080912B
S11324D07D2083FF20C08091C9218823E1F081E021
S11324E080938F2080E18093A50615C080917F2082
S11324F090918020019799F080917D2083FF07C0FF
S113250080E892E1809384209093852008955ECEA4
S11325108111F2CF089580918F208111E7CF089522
S11325201F920F920FB60F9211240BB60F928F9336
S11325309F93EF93FF938091A10B9091A00B8C71CB
S1132540E1F480916C20E82FF0E0E453FE4D908399
S11325508F5F80936C2080916C20803411F41092F2
S11325606C2080916A208F5F80936A20803429F4E4
S113257010926A2081E080936920FF91EF919F91EE
S11325808F910F900BBE0F900FBE0F901F90189558
S11325901F920F920FB60F9211240BB60F928F93C6
S11325A09F93EF93FF93809166208823B9F08091E5
S11325B0662081508093662080916720E82FF0E0A8
S11325C0E153FF4D90819093A00B8F5F8093672020
S11325D0809167208A3F11F410926720FF91EF9158
S11325E09F918F910F900BBE0F900FBE0F901F9075
S11325F01895CF93DF93CDB7DEB76097CDBFDEBF1D
S11326000E946B0365E573E580E090E0AFDB90E149
S1132610B92EB092A506B092450662E080E090E043
S11326200E94ED0384ED80938301BE01665F7F4FBA
S113263080E092E00E94EC044AE850E261E080E02D
S113264092E00E9457058B859C859F7890629C87B9
S1132650817E80618B878DED8D8712E01E87BE01A0
S1132660665F7F4F80E092E00E94AA0410938A2064
S113267081E180938B204AE850E261E080E092E0BF
S11326800E940F0510938A2089E180938B204AE8E9
S113269050E262E080E092E00E940F0510938A20ED
S11326A081E280938B204AE850E264E080E092E08B
S11326B00E940F0510938A2089E280938B204AE8B8
S11326C050E268E080E092E00E940F0580E092E032
S11326D00E94810483E0809390068093910680E7B2
S11326E08093800189E08093880180E09AE0D2D8C9
S11326F08091030A80718093030A8091030A88669B
S11327008093030A8FEF9FEF8093260A9093270A02
S11327108091000A807F81608093000A80E099E0C4
S1132720B9D867E27FE080E099E008D98091010997
S1132730887F83608093010980E099E18093260972
S113274090932709809106098C7F809306098091D4
S1132750060982608093060985E0809390091092AF
S11327602C0910922D0910922E0910922F0980E83D
S11327709CE080937720909378208093280990930D
S113278029098091010980648093010980910109DC
S113279080688093010980910009807F8160809323
S11327A0000980E098E076D869EF70E180E098E075
S11327B0C5D880910108887F83608093010880E0F8
S11327C09DE78093260890932708809106088C7FC4
S11327D080930608809106088160809306088091A2
S11327E00008807F81608093000880EC98E00E945C
S11327F00204C12CD12C760100E412E42FE030E075
S113280041E060E070E080EC98E00E942304809155
S1132810C00880648093C00883E090E08D839E8329
S11328201F821886198680E092ECA1E0B0E08983CB
S11328309A83AB83BC8360E186E090E00E94ED0361
S1132840BE016F5F7F4F80EA9BE064DA8091A30B47
S11328508F7C80618093A30B8091A30B837F846022
S11328608093A30B80E090E280932422909325220E
S11328708EE090E28093222290932322789465E55F
S113288070ED80E090E072DAB092A60680E8809362
S1132890860680E4809385061092AA201092AB20CD
S11328A0109298201092992010929A2010929B20B6
S11328B010926D2010926E201092112212E001E00D
S11328C025E5F22E6091142270911522882777FD58
S11328D08095982F0E94760120E030EE44E454E481
S11328E00E944A0187FF05C01093A6066FDC00937F
S11328F0A9206091142270911522882777FD809574
S1132900982F0E94760120E030E44EE454E40E94C3
S11329101E01181624F41093A5061092A920809184
S11329206A20883078F280E090E026DA8093AC2048
S11329308A3541F66AE580E067DAB82E8DEAC82E5A
S113294080E2D82E80E090E017DAF60181936F01DF
S1132950682F8B2D59DAB82EF3EBCF16F0E2DF0691
S113296089F780E090E008DA8093B320B0921B22CC
S11329708B1509F4C6C08111A5CFC3C081508093C3
S1132980AD20BCEACB2EB0E2DB2EB12CF601E190F7
S11329906F016E2D8B2D38DAB82E8E2D0CDAF3EBF9
S11329A0CF16F0E2DF0691F78B2D05DA8BCF8AE59F
S11329B08093BC20F092BD202091AE20207F809196
S11329C08F208170282B8091C32034E0839FC00125
S11329D01124282B8091A920E8E08E9FC0011124A6
S11329E0282B2093BE20809111222FB7F894823097
S11329F050F080919C2090919D208093BF209093D3
S1132A00C0202FBF09C08091A2209091A320809361
S1132A10BF209093C0202FBF8FB7F894A091CA21F4
S1132A20B091CB218FBF2DE033E0BDD0BB2797FD04
S1132A30BA95A92F982F872F8115F0E89F07A10534
S1132A40B10544F4811520E892072FEFA207B207DD
S1132A5034F009C08FEF9FE7A0E0B0E004C080E04D
S1132A6090E8AFEFBFEF8093C1209093C220FCEBBE
S1132A70CF2EF0E2DF2EB12CF601E1906F016E2D26
S1132A808B2DC2D9B82E8E2D96D9F3ECCF16F0E249
S1132A90DF0691F78B2D8FD9109281208091AE2083
S1132AA0982F9370933051F59091C320911126C0C3
S1132AB082FD03C00093112202C010931122A09141
S1132AC0AF20B091B02023E530E06DD0BB2797FD57
S1132AD0BA95A92F982F872F9C01273686E03807AF
S1132AE014F026E636E02A39E9EF3E0714F42AE921
S1132AF039EF20936D2030936E20E4CE1092112292
S1132B00E1CE8091AD208A3A09F451CF08F4DACEAF
S1132B10803B08F0D7CE32CF97FB072E16F40094F3
S1132B2006D077FD08D04FD007FC05D03EF4909531
S1132B3081959F4F0895709561957F4F0895A1E207
S1132B401A2EAA1BBB1BFD010DC0AA1FBB1FEE1F23
S1132B50FF1FA217B307E407F50720F0A21BB30B6E
S1132B60E40BF50B661F771F881F991F1A9469F7EA
S1132B7060957095809590959B01AC01BD01CF0146
S1132B80089505D0332312F48A1B9B0B0DC0A29F1A
S1132B90B001B39FC001A39F01D0B29F700D811DEE
S1132BA01124911D0895F3DFB7FF0895821B930B41
S1132BB00895EDDFA59F900DB49F900DA49F800D07
S1132BC0911D11240895AA1BBB1B51E107C0AA1F24
S1132BD0BB1FA617B70710F0A61BB70B881F991FBA
S1132BE05A95A9F780959095BC01CD01089506D01A
S1132BF084FF0895CB0102D0805F0895AA2799230A
S1132C0029F4A85F982B11F480E10895903118F409
S1132C10AD5F9295A395990FE8F78A2F99270895A8
S1132C202F923F924F925F926F927F928F929F92D8
S1132C30AF92BF92CF92DF92EF92FF920F931F93C6
S1132C40CF93DF93CDB7DEB7CA1BDB0BCDBFDEBF9F
S1132C5009942A88398848885F846E847D848C84AA
S1132C609B84AA84B984C884DF80EE80FD800C81B3
S1132C701B81AA81B981CE0FD11DCDBFDEBFED016D
S1092C800895F894FFCF53
S1132C860000000200000000DB0E0000000000004F
S10F2C960001000000000000BC0E000063
S9030000FC
