:10000000FDC0000019C1000017C1000015C10000AB
:1000100013C1000011C100000FC100000DC100009C
:100020000BC1000009C1000007C1000005C10000AC
:1000300003C1000001C100000C94120B0C943F0B93
:100040000C946C0B0C94990B0C94C60B0C94F30B46
:100050000C94200C0C944D0C0C947A0C0C94A70C62
:10006000EBC00000E9C00000E7C00000E5C00000F0
:10007000E3C00000E1C00000DFC00000DDC0000000
:10008000DBC00000D9C00000D7C00000D5C0000010
:10009000D3C00000D1C00000CFC00000CDC0000020
:1000A000CBC00000C9C00000C7C00000C5C0000030
:1000B000C3C00000C1C00000BFC000000C94960E79
:1000C0000C94C30E0C94F00E0C941D0F0C944A0F5C
:1000D0000C94770F0C94A40F0C94D10F0C94FE0F7A
:1000E0000C942B10A9C00000A7C00000A5C0000000
:1000F000A3C00000A1C000009FC000009DC0000080
:100100009BC0000099C0000097C0000095C000008F
:1001100093C0000091C000008FC000008DC000009F
:100120008BC0000089C0000087C0000085C00000AF
:1001300083C000000C94D40C0C94010D0C942E0D73
:100140000C945B0D0C94880D0C94B50D0C94E20D81
:100150000C940F0E0C943C0E0C94690E6DC00000B4
:100160006BC0000069C0000067C0000065C00000EF
:1001700063C0000061C000005FC000005DC00000FF
:100180005BC0000059C0000057C0000055C000000F
:1001900053C0000051C000004FC000004DC000001F
:1001A0004BC0000049C0000047C0000045C000002F
:1001B0000C9458100C9485100C94B2100C94DF1011
:1001C0000C940C110C94391137C0000035C000009C
:1001D00033C0000031C000002FC0000027C5000060
:1001E0002BC000005BC5000027C0000025C0000038
:1001F00023C0000021C000001FC0000011241FBE4A
:10020000CFEFCDBFDFE2DEBF10E2A0E0B0E2E0E77B
:10021000FDE200E00BBF02C007900D92AC31B107C8
:10022000D9F722E2ACE1B0E201C01D92A934B207D5
:10023000E1F763D50C94B616E3CECF93DF9387E056
:10024000E0EAF0E08283C2D7A0EAB6E030E111969E
:100250003C93119720E211962C931197E0E8F6E079
:1002600081E0828392E0928384E0828311969C9362
:100270001197C0E6D6E0898398E0998312968C9313
:10028000129711969C9380E4818390E89183E0E437
:10029000F6E03183218382838093B00088E1808BF4
:1002A0009183DF91CF910895809120208823E1F3FD
:1002B000E091212081E08E0F80932120F0E0E15237
:1002C000FE4D808190912120903411F410922120D4
:1002D00090912020915090932020992787FD909510
:1002E000089590911C209A3FE1F3F89490911C207E
:1002F000911105C0E0EAFBE0918195FD16C0E09107
:100300001E2091E09E0F90931E20F0E0E052FF4DE2
:10031000808380911E208A3F11F410921E208091CC
:100320001C208F5F80931C2002C08093A00B7894C8
:1003300080E090E00895682760FD02C080E001C081
:100340008EE561FF02C09CEB892762FF02C091E647
:10035000892763FF02C092EC892764FF02C09DE9F0
:10036000892765FF02C093E2892766FF02C096E4F1
:100370008927662314F49CE88927089510929A200F
:1003800010929B2010929C2010929D20109223206E
:100390001092242080E1E0EAF6E0868310928F201C
:1003A0000895CF92DF92EF92FF920F931F93CF9316
:1003B000DF931092DC201092DD2010927B201092AF
:1003C0007C2010927D2010927E201092B2201092FC
:1003D000B3201092DA211092DB218091CE209091EF
:1003E000CF2080939E2090939F20209133223091A4
:1003F00034222A30310538F42F5F3F4F20933322C7
:100400003093342297C010923322109234222091DC
:100410008720309188202093CE203093CF20821BDC
:10042000930B8093DC209093DD209C01992314F49E
:100430002D5F3F4F3595279535952795209335228C
:1004400030933622C0919420D0919520C21BD30BBB
:10045000C093B220D093B3200091822010918320CA
:100460000C0F1D1F0093DA211093DB21A091A8200F
:10047000B091A920A233B10529F480E2E0EAF6E0C8
:10048000858304C080E2E0EAF6E086839E010E9454
:10049000C5140E94021620E030E048EC52E40E94AD
:1004A00067156B017C01A091AD20B091AE20980141
:1004B0000E94C5140E94021620E030E048EC52E48D
:1004C0000E9467159B01AC01C701B6010E94FF1491
:1004D00060937B2070937C2080937D2090937E207E
:1004E0000E94CF15DB012DE033E00E94DA14BB2718
:1004F00097FDBA95A92F982F872F811520E892078D
:10050000A105B10524F08FEF9FE7A0E0B0E08115D1
:1005100020E892072FEFA207B20724F480E090E8CA
:10052000AFEFBFEF8093232090932420C0938220CD
:10053000D093832080917F20843620F48F5F809336
:100540007F2005C084E680937F2010922622809130
:10055000A2209091A320803F910544F480919020A7
:10056000853640F48F5F8093902004C010929020D5
:100570001092CD2080919020843628F0109226226F
:1005800081E08093CD208091D9209091DA20813034
:10059000910509F44DC08230910509F45CC0892BA6
:1005A00009F0A4C080E1E0E4F6E086838091AF200A
:1005B0009091B020843091055CF410928E20982F99
:1005C0008827990F990F990F9068909389200FC0F1
:1005D00010928E2080E880938920809184209091D1
:1005E0008520009721F080938E2090938920809120
:1005F000AF209091B0200196853091052CF4809326
:10060000AF209093B02008C01092AF201092B0207D
:10061000109284201092852080918920E0ECF8E0EF
:10062000838381E090E08093D9209093DA205EC0AC
:10063000E0ECF8E0828188230CF058C0838180933D
:10064000982080918E20838382E090E08093D9204F
:100650009093DA204BC0E0ECF8E0828188230CF024
:1006600045C08381809321222091982090E0922B95
:100670008093BE209093BF2020E1E0E4F6E0258344
:10068000019689F41092792010927A2010927720A6
:10069000109278201092752010927620109273207C
:1006A000109274206BDE8091BE209091BF20992320
:1006B000CCF09C0122273877232F332726952695C7
:1006C00026952430310574F440916F2050917020AC
:1006D000452B41F4F901EE0FFF1FED58FF4D9770C8
:1006E000808391831092D9201092DA208091262263
:1006F000882309F4B5C080918F208111A0C080911A
:10070000AF209091B020009779F42091792030911A
:100710007A202130310541F01092D42021E038E1D7
:1007200020938420309385202091DC21211159C011
:100730002091792030917A202130310509F051C083
:10074000E091D420E11111C02091C0203091C1204E
:1007500020932B2230932C222091802030918120D5
:1007600020931F223093202237C04091C020509107
:10077000C12020912B2230912C22420F531F4093F5
:100780002B2250932C226091802070918120209107
:100790001F2230912022260F371F20931F223093D3
:1007A0002022EF30C8F0529542954F7045275F7078
:1007B00045274093DE205093DF20329522952F70FD
:1007C00023273F702327209327223093282221E0DC
:1007D0002093DC211092D4202091D4202F5F2093ED
:1007E000D420892BA1F48091842090918520892B9D
:1007F00071F48091772083FD0AC08091DC218823E9
:1008000031F088E892E180938420909385201092C3
:100810009A2010929B2010929C2010929D208091F3
:10082000772083FF22C08091DC218823F1F081E0D2
:1008300080938F2080E1E0EAF6E0858316C0809106
:10084000792090917A200197B1F08091772083FFF1
:1008500011C080E892E180938420909385200BC0A2
:1008600080918F208111F1CF06C080918F20882345
:1008700011F0E5CF83DDDF91CF911F910F91FF90B4
:10088000EF90DF90CF9008958F929F92AF92BF929A
:10089000CF92DF92EF92FF920F931F93E0E0F2E08E
:1008A00024A135A18091DE209091DF20281B390BF7
:1008B0002093C0203093C120E8E2F2E0848195814A
:1008C0004091272250912822841B950B80938020F1
:1008D00090938120E0E3F2E06481758160932922A6
:1008E00070932A224091B4205091B520552344F0B2
:1008F0009195819591098093C2209093C32004C063
:100900002093C2203093C3208091DB2091E0980F88
:100910009093DB20882309F446C11092DB20E0E0AD
:10092000FAE080A191A18093872090938820813064
:1009300020E8920728F48093D7209093D82006C00F
:100940009C0130582093D7203093D82020919120BB
:1009500030919220AC01421B530B4093A620509340
:10096000A7208093912090939220E091C220F09153
:10097000C3208091AA209091AB208E0F9F1F80935F
:100980002D2290932E22C0902320D0902420C81A8C
:10099000D90AC092D020D092D120EE24D7FCE09486
:1009A000FE2C00919A2010919B2020919C20309148
:1009B0009D200C0D1D1D2E1D3F1D013859EA1507E8
:1009C00053E02507310524F000E819EA23E030E080
:1009D000003886E518078CEF28078FEF380724F4D6
:1009E00000E816E52CEF3FEF00939A2010939B2030
:1009F00020939C2030939D20683542E074073CF49E
:100A000080E093E08093C4209093C5200EC075953C
:100A10006795759567957595679580E890E70E944D
:100A200090146093C4207093C520012F122F232FA0
:100A3000332727FD3A95D80120E03CE00E94DA14E4
:100A4000872E982EA92EBB24A7FCBA94A0E0B5E06F
:100A5000A70196010E94E014BB2797FDBA95A92F24
:100A6000982F872F9401280F391FA091C420B0918F
:100A7000C5200E94C514BB2797FDBA95A92F982FB2
:100A8000872F813058E19507A105B10524F080E05A
:100A900098E1A0E0B0E0811528EE92072FEFA207C1
:100AA000B20724F480E098EEAFEFBFEF9C01809393
:100AB000B4209093B52010923722109238221092D1
:100AC000D2201092D32080918F20882369F11216B2
:100AD0001306A4F4C90180589F4F80933722909346
:100AE000382220583E4F209371203093722080E8A6
:100AF00090E08093D2209093D32016C03323A4F4A7
:100B000080E890E08093372290933822821B930BE9
:100B10008093D2209093D32080E891E0821B930BA6
:100B20008093712090937220809137229091382287
:100B3000A0E0B9E09C968D939C939D978091D220E4
:100B40009091D3209E968D939C939F978091712036
:100B50009091722098968D939C93999780913922C9
:100B600090913A22E80FF91FE0933922F0933A224C
:100B70008091312291E0980F90933122803208F1D8
:100B8000F595E795F595E795F595E795F595E7954D
:100B9000E093DD21F093DE21109231221092392270
:100BA00010923A220EC0809171209091722080584C
:100BB000934F60E079E10E949014E0E0F9E080A7B3
:100BC00091A78091C2209091C3208093AA209093F6
:100BD000AB2080919320811110C081E080939320FD
:100BE000E8E3F2E0848195818093A2209093A32092
:100BF00089E3E0E0F2E081AF0EC010929320E8E3D9
:100C0000F2E0848195818093A0209093A12089E2D5
:100C1000E0E0F2E081AF1F910F91FF90EF90DF9045
:100C2000CF90BF90AF909F908F9008951F920F929A
:100C30000FB60F9211240BB60F928F939F93EF93E1
:100C4000FF93E0EAFBE0818190818C71E1F4E09117
:100C5000222081E08E0F80932220F0E0E152FE4DB1
:100C6000908380912220803411F410922220809170
:100C700020208F5F80932020803429F41092202040
:100C800081E080931F20FF91EF919F918F910F90B2
:100C90000BBE0F900FBE0F901F9018951F920F92D2
:100CA0000FB60F9211240BB60F928F93EF93FF9311
:100CB00080911C208823B9F080911C208150809362
:100CC0001C20E0911D2081E08E0F80931D20F0E01C
:100CD000E052FF4D80818093A00B80911D208A3FC0
:100CE00011F410921D20FF91EF918F910F900BBE88
:100CF0000F900FBE0F901F901895CF93DF93CDB735
:100D0000DEB72997CDBFDEBF98DA80E090E001968C
:100D1000853523E59207D9F780E1E0EAF6E085839F
:100D2000E0E4F6E0858362E080E090E08FD26894B2
:100D3000CC24C7F8DD24D39484EDF6018383BE016F
:100D40006F5F7F4F80E092E07FD34AE850E261E03E
:100D500080E092E0D5D38A819B819F7890629B83CB
:100D6000817E80618A838DED8C836894BB24B1F889
:100D7000BD82BE016F5F7F4F80E092E014D30F2EE3
:100D8000FAE8EF2EF0E2FF2EF02DF701B0820BE82B
:100D900010E281E1F8018083A70161E080E092E048
:100DA00076D3F701B08289E1F8018083A70162E080
:100DB00080E092E06CD3F701B08281E2F801808399
:100DC000A70164E080E092E062D3F701B08289E29B
:100DD000F8018083A70168E080E092E058D380E0CA
:100DE00092E0CAD2E0E8F6E083E0808B818B80E776
:100DF000F601808389E08093880180E09AE00E9478
:100E00006611E0E0FAE083818071838383818866E4
:100E100083838FEF9FEF86A397A38081807F81607C
:100E2000808380E099E00E94661164E474E080E0D1
:100E300099E00E94E011E0E0F9E08181887F836021
:100E4000818380E099E186A397A386818C7F868346
:100E500086818260868385E08093900914A615A61A
:100E600016A617A680E89CE08093712090937220CC
:100E700080A791A78181806481838181806881833B
:100E80008081807F8160808380E098E00E9466118D
:100E900061ED71E080E098E00E94E011E0E0F8E0B0
:100EA0008181887F8360818380E09DE786A397A30B
:100EB00086818C7F86838681816086838081807F26
:100EC0008160808380EC98E0D6D1C12CD12C760152
:100ED00000E412E42FE030E041E060E070E080ECFC
:100EE00098E0EBD1E0ECF8E080818064808383E0DF
:100EF00090E08D839E831F821886198680E092EC95
:100F0000A1E0B0E089839A83AB83BC8360E186E093
:100F100090E09CD1BE016F5F7F4F80EA9BE00E9412
:100F20002413E0EAFBE083818F7C806183838381EB
:100F3000837F846083838EE090E280934522909348
:100F4000462280E090E2809343229093442278945A
:100F500080E090E001968535F0ED9F07D9F780E1BC
:100F6000E0EAF6E08683E0E8F6E080E8868380E465
:100F700085831092B4201092B52010929A2010927E
:100F80009B2010929C2010929D2010922320109262
:100F90002420109226220F2EF0EA8F2EF6E09F2EAC
:100FA000F02D0F2EF6EB6F2EF0E27F2EF02D0F2E90
:100FB000F7EBAF2EF0E2BF2EF02D0F2EFDEBEF2E54
:100FC000F0E2FF2EF02D0F2EF6EC4F2EF0E25F2E0A
:100FD000F02D0F2EFDECCF2EF0E2DF2EF02D6091E4
:100FE000292270912A22882777FD8095982F0E94C8
:100FF000021620E030EE44E454E40E946315882396
:101000003CF482E0F4018683B9D981E08093B12079
:101010006091292270912A22882777FD8095982F48
:101020000E94021620E030E44EE454E40E94B2161E
:1010300018162CF482E0F40185831092B12080917F
:101040002020883060F280E090E02ED9F301808388
:101050008A3529F66AE580E06ED9382E850180E070
:1010600090E022D9F80181938F01682F832D63D9F5
:10107000382E0E151F0599F780E090E015D9F7017D
:10108000808330923222381611F08111A8CFF501F9
:1010900080818A3AC1F008F4A2CF803B08F09FCF4C
:1010A000815080838301212CF80131908F01632DC1
:1010B000822D41D9282E832D14D9E016F106A1F7EF
:1010C000822D0FD98CCF8AE5F201808385E5E7EC8C
:1010D000F0E28083E8EBF0E22081207F80918F2096
:1010E0008170282B9091CD20990F990F922B809190
:1010F000B120880F880F880F892BE8ECF0E28083FD
:1011000080912622823060F02FB7F8948091A02041
:101110009091A120E9ECF0E2808391832FBF0BC076
:101120002FB7F8948091352290913622E9ECF0E2C5
:10113000808391832FBF8FB7F8948FBF80919420C5
:1011400090919520EBECF0E2808391838201212C39
:10115000F80131908F01632D822DEDD8282E832D3B
:10116000C0D80C151D05A1F7822DBBD810927F2089
:10117000E8EBF0E28081982F9370933021F5909105
:10118000CD20911120C082FD04C081E080932622F1
:1011900003C082E080932622E9EBF0E28081918116
:1011A0008093942090939520EBEBF0E280819181E5
:1011B0009C0133272093AD203093AE209093A8203C
:1011C0001092A9200CCF1092262209CF8FEF809386
:1011D00070008093710080937200809373008093FD
:1011E0007400809375008093760063E081E490E062
:1011F000C1D1E0E5F0E0818184FD1BC0818183FDE8
:101200000BC08BEC82838FB7F894908198609083A9
:101210008FBF818183FFFDCF8FB7F894E0E5F0E0C9
:1012200098EC95839081906190838FBF818184FF3A
:10123000FDCF64E080E490E09DD18FB7F894E0E5C5
:10124000F0E090819E7F90838FBF08952FB7F89430
:10125000FC01E059FF4F60958081682360832FBFB8
:1012600008952FB7F894FC01E059FF4F8081682B57
:1012700060832FBF0895CF93DF93EC01C03C28E03B
:10128000D20729F468E083E090E0E0DF10C0803C02
:1012900029E0920729F468E084E090E0D7DF07C0F6
:1012A000803C9A4021F468E085E090E0CFDF8881BF
:1012B00080618883DF91CF910895FF920F931F93F0
:1012C000CF93DF93EC01F42EB901A80100E018E4FC
:1012D00028EE31E05FD188234CF088819F2D990F53
:1012E000990F9C70837FF92EF82AF882DF91CF91B5
:1012F0001F910F91FF900895811522E0920769F4E4
:101300008091262091E0980F90932620811114C09F
:1013100062E081E090E09ACF08958034924061F4D9
:101320008091252091E0980F90932520811104C091
:1013300062E082E090E08ACF0895811522E0920772
:1013400061F480912620815080932620811113C062
:1013500062E081E090E085CF08958034924059F4B6
:1013600080912520815080932520811104C062E066
:1013700082E090E076CF08951F93CF93DF93EC0146
:101380001FB7F894B9DF8881816088831FBF8FB74A
:10139000F894EEE3F2E290819F5F90838FBFDF913C
:1013A000CF911F910895DF92EF92FF920F931F93B9
:1013B000CF93DF93EC018B01C11522E0D20771F4CA
:1013C00061E270E082E0DCD0E82EF12C60E270E0B7
:1013D00082E0D6D0FE2CEE24E82A10C08034924061
:1013E00059F565E270E082E0CBD0E82EF12C64E2A2
:1013F00070E082E0C5D0FE2CEE24E82ADFB6F89437
:10140000CE017ADF288182E08883EC86FD86F801B0
:1014100085819681888F998F82818A8384818C834C
:1014200083818B8381818983822F81709081892B35
:101430008883CE0182DFDFBEDF91CF911F910F91B4
:10144000FF90EF90DF900895FF920F931F93CF933B
:10145000DF93EC018B01FFB6F8944EDF8881807C2E
:10146000F8018083888D998D858396838A81828314
:101470008C8184838B81838389818183CE015DDF2D
:10148000FFBEDF91CF911F910F91FF900895CF92F2
:10149000DF92EF92FF920F931F93CF93DF937C0124
:1014A000D62E8A01862F837029F4962F96959695CD
:1014B00082E002C0962F80E090FF8F5FE701A09648
:1014C00098E0899FC00DD11D1124CFB6F894C701B3
:1014D00013DFF8018081888382818A8381818983F7
:1014E000D0FE02C083818E83C70127DFCFBEDF918C
:1014F000CF911F910F91FF90EF90DF90CF900895C3
:10150000CF92DF92EF92FF920F931F93CF93DF93CF
:101510007C01D62EEA01862F837029F4962F9695AA
:10152000969582E002C0962F80E090FF8F5F870142
:10153000005E1F4F98E0899F000D111D1124CFB64A
:10154000F894C701D9DEF8018081888382818A837B
:1015500081818983D0FE02C086818B83C701EDDE45
:10156000CFBEDF91CF911F910F91FF90EF90DF9051
:10157000CF9008951BBEFC0128ED24BF6083089521
:101580004091CA01E62FF72F8093CA0184914093BE
:10159000CA010895CF92DF92EF92FF920F931F93AB
:1015A000CF93DF93EC016A017B01DB01CA01019754
:1015B000A109B109BC01CD01600F711F821F931FEA
:1015C000A70196010E94A314213831054105510558
:1015D000F8F4213460F4213260F4213160F42930D0
:1015E00060F4253060F4233060F090E00BC093E0AD
:1015F00009C092E007C092E805C091E003C091E8FD
:1016000001C090E888818C77892B888381E001C0B4
:101610008FEFDF91CF911F910F91FF90EF90DF90AF
:10162000CF9008951F920F920FB60F9211240BB610
:101630000F922F933F934F935F936F937F938F936B
:101640009F93AF93BF93EF93FF93E0916D20F09141
:101650006E20309709F00995FF91EF91BF91AF91FE
:101660009F918F917F916F915F914F913F912F91BA
:101670000F900BBE0F900FBE0F901F9018951F92EA
:101680000F920FB60F9211240BB60F922F933F9328
:101690004F935F936F937F938F939F93AF93BF937A
:1016A000EF93FF93E0916B20F0916C20309709F05D
:1016B0000995FF91EF91BF91AF919F918F917F918C
:1016C0006F915F914F913F912F910F900BBE0F90B3
:1016D0000FBE0F901F9018951F920F920FB60F928A
:1016E00011240BB60F922F933F934F935F936F93F9
:1016F0007F938F939F93AF93BF93EF93FF93E0916B
:101700006920F0916A20309709F00995FF91EF91D7
:10171000BF91AF919F918F917F916F915F914F9109
:101720003F912F910F900BBE0F900FBE0F901F9007
:1017300018951F920F920FB60F9211240BB60F92AD
:101740002F933F934F935F936F937F938F939F93C9
:10175000AF93BF93EF93FF93E0916720F0916820E0
:10176000309709F00995FF91EF91BF91AF919F914B
:101770008F917F916F915F914F913F912F910F903A
:101780000BBE0F900FBE0F901F9018951F920F92D7
:101790000FB60F9211240BB60F922F933F934F93D6
:1017A0005F936F937F938F939F93AF93BF93EF93C9
:1017B000FF93E0916520F0916620309709F009953C
:1017C000FF91EF91BF91AF919F918F917F916F9119
:1017D0005F914F913F912F910F900BBE0F900FBED5
:1017E0000F901F9018951F920F920FB60F92112411
:1017F0000BB60F922F933F934F935F936F937F930B
:101800008F939F93AF93BF93EF93FF93E0916320E8
:10181000F0916420309709F00995FF91EF91BF9105
:10182000AF919F918F917F916F915F914F913F9178
:101830002F910F900BBE0F900FBE0F901F90189519
:101840001F920F920FB60F9211240BB60F922F9387
:101850003F934F935F936F937F938F939F93AF9338
:10186000BF93EF93FF93E0916120F0916220309756
:1018700009F00995FF91EF91BF91AF919F918F91E1
:101880007F916F915F914F913F912F910F900BBE80
:101890000F900FBE0F901F9018951F920F920FB6CA
:1018A0000F9211240BB60F922F933F934F935F9398
:1018B0006F937F938F939F93AF93BF93EF93FF9318
:1018C000E0915F20F0916020309709F00995FF9139
:1018D000EF91BF91AF919F918F917F916F915F91A8
:1018E0004F913F912F910F900BBE0F900FBE0F9015
:1018F0001F9018951F920F920FB60F9211240BB6DE
:101900000F922F933F934F935F936F937F938F9398
:101910009F93AF93BF93EF93FF93E0915D20F0917E
:101920005E20309709F00995FF91EF91BF91AF913B
:101930009F918F917F916F915F914F913F912F91E7
:101940000F900BBE0F900FBE0F901F9018951F9217
:101950000F920FB60F9211240BB60F922F933F9355
:101960004F935F936F937F938F939F93AF93BF93A7
:10197000EF93FF93E0915B20F0915C20309709F0AA
:101980000995FF91EF91BF91AF919F918F917F91B9
:101990006F915F914F913F912F910F900BBE0F90E0
:1019A0000FBE0F901F9018951F920F920FB60F92B7
:1019B00011240BB60F922F933F934F935F936F9326
:1019C0007F938F939F93AF93BF93EF93FF93E09198
:1019D0005920F0915A20309709F00995FF91EF9125
:1019E000BF91AF919F918F917F916F915F914F9137
:1019F0003F912F910F900BBE0F900FBE0F901F9035
:101A000018951F920F920FB60F9211240BB60F92DA
:101A10002F933F934F935F936F937F938F939F93F6
:101A2000AF93BF93EF93FF93E0915720F09158202D
:101A3000309709F00995FF91EF91BF91AF919F9178
:101A40008F917F916F915F914F913F912F910F9067
:101A50000BBE0F900FBE0F901F9018951F920F9204
:101A60000FB60F9211240BB60F922F933F934F9303
:101A70005F936F937F938F939F93AF93BF93EF93F6
:101A8000FF93E0915520F0915620309709F0099589
:101A9000FF91EF91BF91AF919F918F917F916F9146
:101AA0005F914F913F912F910F900BBE0F900FBE02
:101AB0000F901F9018951F920F920FB60F9211243E
:101AC0000BB60F922F933F934F935F936F937F9338
:101AD0008F939F93AF93BF93EF93FF93E091532026
:101AE000F0915420309709F00995FF91EF91BF9143
:101AF000AF919F918F917F916F915F914F913F91A6
:101B00002F910F900BBE0F900FBE0F901F90189546
:101B10001F920F920FB60F9211240BB60F922F93B4
:101B20003F934F935F936F937F938F939F93AF9365
:101B3000BF93EF93FF93E0915120F09152203097A3
:101B400009F00995FF91EF91BF91AF919F918F910E
:101B50007F916F915F914F913F912F910F900BBEAD
:101B60000F900FBE0F901F9018951F920F920FB6F7
:101B70000F9211240BB60F922F933F934F935F93C5
:101B80006F937F938F939F93AF93BF93EF93FF9345
:101B9000E0914F20F0915020309709F00995FF9186
:101BA000EF91BF91AF919F918F917F916F915F91D5
:101BB0004F913F912F910F900BBE0F900FBE0F9042
:101BC0001F9018951F920F920FB60F9211240BB60B
:101BD0000F922F933F934F935F936F937F938F93C6
:101BE0009F93AF93BF93EF93FF93E0914D20F091BC
:101BF0004E20309709F00995FF91EF91BF91AF9179
:101C00009F918F917F916F915F914F913F912F9114
:101C10000F900BBE0F900FBE0F901F9018951F9244
:101C20000F920FB60F9211240BB60F922F933F9382
:101C30004F935F936F937F938F939F93AF93BF93D4
:101C4000EF93FF93E0914B20F0914C20309709F0F7
:101C50000995FF91EF91BF91AF919F918F917F91E6
:101C60006F915F914F913F912F910F900BBE0F900D
:101C70000FBE0F901F9018951F920F920FB60F92E4
:101C800011240BB60F922F933F934F935F936F9353
:101C90007F938F939F93AF93BF93EF93FF93E091C5
:101CA0004920F0914A20309709F00995FF91EF9172
:101CB000BF91AF919F918F917F916F915F914F9164
:101CC0003F912F910F900BBE0F900FBE0F901F9062
:101CD00018951F920F920FB60F9211240BB60F9208
:101CE0002F933F934F935F936F937F938F939F9324
:101CF000AF93BF93EF93FF93E0914720F09148207B
:101D0000309709F00995FF91EF91BF91AF919F91A5
:101D10008F917F916F915F914F913F912F910F9094
:101D20000BBE0F900FBE0F901F9018951F920F9231
:101D30000FB60F9211240BB60F922F933F934F9330
:101D40005F936F937F938F939F93AF93BF93EF9323
:101D5000FF93E0914520F0914620309709F00995D6
:101D6000FF91EF91BF91AF919F918F917F916F9173
:101D70005F914F913F912F910F900BBE0F900FBE2F
:101D80000F901F9018951F920F920FB60F9211246B
:101D90000BB60F922F933F934F935F936F937F9365
:101DA0008F939F93AF93BF93EF93FF93E091432063
:101DB000F0914420309709F00995FF91EF91BF9180
:101DC000AF919F918F917F916F915F914F913F91D3
:101DD0002F910F900BBE0F900FBE0F901F90189574
:101DE0001F920F920FB60F9211240BB60F922F93E2
:101DF0003F934F935F936F937F938F939F93AF9393
:101E0000BF93EF93FF93E0914120F09142203097F0
:101E100009F00995FF91EF91BF91AF919F918F913B
:101E20007F916F915F914F913F912F910F900BBEDA
:101E30000F900FBE0F901F9018951F920F920FB624
:101E40000F9211240BB60F922F933F934F935F93F2
:101E50006F937F938F939F93AF93BF93EF93FF9372
:101E6000E0913F20F0914020309709F00995FF91D3
:101E7000EF91BF91AF919F918F917F916F915F9102
:101E80004F913F912F910F900BBE0F900FBE0F906F
:101E90001F9018951F920F920FB60F9211240BB638
:101EA0000F922F933F934F935F936F937F938F93F3
:101EB0009F93AF93BF93EF93FF93E0913D20F091F9
:101EC0003E20309709F00995FF91EF91BF91AF91B6
:101ED0009F918F917F916F915F914F913F912F9142
:101EE0000F900BBE0F900FBE0F901F9018951F9272
:101EF0000F920FB60F9211240BB60F922F933F93B0
:101F00004F935F936F937F938F939F93AF93BF9301
:101F1000EF93FF93E0913B20F0913C20309709F044
:101F20000995FF91EF91BF91AF919F918F917F9113
:101F30006F915F914F913F912F910F900BBE0F903A
:101F40000FBE0F901F9018951F920F920FB60F9211
:101F500011240BB60F922F933F934F935F936F9380
:101F60007F938F939F93AF93BF93EF93FF93E091F2
:101F70003920F0913A20309709F00995FF91EF91BF
:101F8000BF91AF919F918F917F916F915F914F9191
:101F90003F912F910F900BBE0F900FBE0F901F908F
:101FA00018951F920F920FB60F9211240BB60F9235
:101FB0002F933F934F935F936F937F938F939F9351
:101FC000AF93BF93EF93FF93E0913720F0913820C8
:101FD000309709F00995FF91EF91BF91AF919F91D3
:101FE0008F917F916F915F914F913F912F910F90C2
:101FF0000BBE0F900FBE0F901F9018951F920F925F
:102000000FB60F9211240BB60F922F933F934F935D
:102010005F936F937F938F939F93AF93BF93EF9350
:10202000FF93E0913520F0913620309709F0099523
:10203000FF91EF91BF91AF919F918F917F916F91A0
:102040005F914F913F912F910F900BBE0F900FBE5C
:102050000F901F9018951F920F920FB60F92112498
:102060000BB60F922F933F934F935F936F937F9392
:102070008F939F93AF93BF93EF93FF93E0913320A0
:10208000F0913420309709F00995FF91EF91BF91BD
:10209000AF919F918F917F916F915F914F913F9100
:1020A0002F910F900BBE0F900FBE0F901F901895A1
:1020B0001F920F920FB60F9211240BB60F922F930F
:1020C0003F934F935F936F937F938F939F93AF93C0
:1020D000BF93EF93FF93E0913120F091322030973E
:1020E00009F00995FF91EF91BF91AF919F918F9169
:1020F0007F916F915F914F913F912F910F900BBE08
:102100000F900FBE0F901F9018951F920F920FB651
:102110000F9211240BB60F922F933F934F935F931F
:102120006F937F938F939F93AF93BF93EF93FF939F
:10213000E0912F20F0913020309709F00995FF9120
:10214000EF91BF91AF919F918F917F916F915F912F
:102150004F913F912F910F900BBE0F900FBE0F909C
:102160001F9018951F920F920FB60F9211240BB665
:102170000F922F933F934F935F936F937F938F9320
:102180009F93AF93BF93EF93FF93E0912D20F09136
:102190002E20309709F00995FF91EF91BF91AF91F3
:1021A0009F918F917F916F915F914F913F912F916F
:1021B0000F900BBE0F900FBE0F901F9018951F929F
:1021C0000F920FB60F9211240BB60F922F933F93DD
:1021D0004F935F936F937F938F939F93AF93BF932F
:1021E000EF93FF93E0912B20F0912C20309709F092
:1021F0000995FF91EF91BF91AF919F918F917F9141
:102200006F915F914F913F912F910F900BBE0F9067
:102210000FBE0F901F9018951F920F920FB60F923E
:1022200011240BB60F922F933F934F935F936F93AD
:102230007F938F939F93AF93BF93EF93FF93E0911F
:102240002920F0912A20309709F00995FF91EF910C
:10225000BF91AF919F918F917F916F915F914F91BE
:102260003F912F910F900BBE0F900FBE0F901F90BC
:1022700018951F920F920FB60F9211240BB60F9262
:102280002F933F934F935F936F937F938F939F937E
:10229000AF93BF93EF93FF93E0912720F091282015
:1022A000309709F00995FF91EF91BF91AF919F9100
:1022B0008F917F916F915F914F913F912F910F90EF
:1022C0000BBE0F900FBE0F901F901895CF93CFB7F6
:1022D000F894282F392F211588E0380759F461E048
:1022E00083E090E00E94260964E083E090E00E9491
:1022F00026095BC0203488E0380759F462E083E0A7
:1023000090E00E94260964E083E090E00E942609A4
:102310004CC0211589E0380759F461E084E090E071
:102320000E94260964E084E090E00E9426093DC0F6
:10233000203489E0380759F462E084E090E00E949C
:10234000260964E084E090E00E9426092EC0211551
:102350008AE0380759F461E085E090E00E942609A0
:1023600064E085E090E00E9426091FC020348AE0E6
:10237000380759F462E085E090E00E94260964E0A5
:1023800085E090E00E94260910C021153B4059F4D9
:1023900061E086E090E00E94260964E086E090E03B
:1023A0000E94260902C0CFBF09C08FB7F894EEE3A0
:1023B000F2E290819F5F90838FBFCFBFCF9108954E
:1023C000811528E0920729F460936D2070936E20A8
:1023D0000895803428E0920729F460936120709377
:1023E00062200895811529E0920729F4609359200D
:1023F00070935A200895803429E0920729F460935D
:102400004D2070934E20089581152AE0920729F4FB
:102410006093452070934620089580342AE0920707
:1024200029F46093392070933A20089581159B40D8
:1024300021F4609331207093322008954F925F927F
:102440006F927F928F929F92AF92BF92CF92DF92C4
:10245000EF92FF920F931F93CF93DF93EC014A010A
:102460005B0128013901D901C801689412F8B695B9
:10247000A795979587951694D1F7B901A801032ED2
:1024800036E176956795579547953A95D1F7302D72
:102490002C8122FD08C0B695A795979587957695CE
:1024A00067955795479588159905AA05BB0508F4C2
:1024B000A2C084169506A606B70608F49EC08C81B5
:1024C00082FD04C0880C991CAA1CBB1CC301B2016C
:1024D000A501940138D22F3F31054105510508F47B
:1024E0008EC0C12CD12C7601CA9419EF05C02C15D1
:1024F0003D054E055F0568F0CC0CDD1CEE1CFF1C95
:102500001D3F14F46894C0F81F5F173081F7212F26
:102510004EC0212F11230CF04AC0D501C401880FF1
:10252000991FAA1FBB1F880F991FAA1FBB1F880FC7
:10253000991FAA1FBB1F481A590A6A0A7B0A1E3F25
:10254000ECF46DEF7FEF611B710917FD739504C00B
:10255000440C551C661C771C6A95D2F7D501C40142
:10256000B695A79597958795BC01CD01640D751D0E
:10257000861D971DA5019401E6D134C023E0210FEB
:10258000D501C40104C0880F991FAA1FBB1F2A953B
:10259000D2F79C01AD01B695A79597958795BC019B
:1025A000CD01640D751D861D971DCDD11BC02D5FFE
:1025B000D501C40104C0880F991FAA1FBB1F2A950B
:1025C000D2F79C01AD01B695A79597958795BC016B
:1025D000CD01640D751D861D971DB5D121503109A2
:1025E00041095109832F8F701295107F182B1F837B
:1025F0002E8381E018C080E016C080E014C0D501B1
:10260000C401880F991FAA1FBB1F880F991FAA1FFB
:10261000BB1F880F991FAA1FBB1F481A590A6A0AB5
:102620007B0A19EF8ECFDF91CF911F910F91FF9011
:10263000EF90DF90CF90BF90AF909F908F907F9062
:102640006F905F904F9008950F931F93CF93DF93F8
:10265000EC018B01009709F43EC1803C910531F4F7
:1026600060E180E090E00E94260935C1C11584E058
:10267000D80731F464E080E090E00E9426092BC185
:10268000C038E1E0DE0731F462E080E090E00E94D3
:10269000260921C1C115F1E0DF0731F461E080E0D6
:1026A00090E00E94260917C1C03883E0D80731F4B2
:1026B00061E081E090E00E9426090DC1C039E3E0AD
:1026C000DE0731F461E082E090E00E94260903C158
:1026D000C115F2E0DF0731F462E081E090E00E9492
:1026E0002609F9C0C03482E0D80731F462E082E004
:1026F00090E00E942609EFC0C032E3E0DE0731F42B
:1027000064E082E090E00E942609E5C0C115F8E08F
:10271000DF0731F461E083E090E00E942609DBC02E
:10272000C11589E0D80731F461E084E090E00E94AF
:102730002609D1C0C115EAE0DE0731F461E085E089
:1027400090E00E942609C7C0C115FBE0DF0731F405
:1027500061E086E090E00E942609BDC0C03488E0B8
:10276000D80731F462E083E090E00E942609B3C00C
:10277000C034E9E0DE0731F462E084E090E00E94DA
:102780002609A9C0C034FAE0DF0731F462E085E031
:1027900090E00E9426099FC0C03988E0D80731F434
:1027A00064E083E090E00E94260995C0C039E9E02A
:1027B000DE0731F464E084E090E00E9426098BC0DB
:1027C000C039FAE0DF0731F464E085E090E00E9470
:1027D000260981C0C0398BE0D80731F464E086E077
:1027E00090E00E94260977C0C03CE8E0DE0731F4A3
:1027F00068E083E090E00E9426096DC0C03CF9E0EB
:10280000DF0731F468E084E090E00E94260963C0AD
:10281000C03C8AE0D80731F468E085E090E00E948F
:10282000260959C0C03AE8E0DE0731F460E183E0F0
:1028300090E00E9426094FC0C03AF9E0DF0731F46A
:1028400060E184E090E00E94260945C0C03A8AE039
:10285000D80731F460E185E090E00E9426093BC092
:10286000C03AEBE0DE0731F460E186E090E00E94E0
:10287000260931C0C03BF8E0DF0731F460E283E0B5
:1028800090E00E94260927C0C03B89E0D80731F4B8
:1028900060E284E090E00E9426091DC0C03BEAE0AF
:1028A000DE0731F460E285E090E00E94260913C063
:1028B000C038F4E0DF0731F460E483E090E00E9488
:1028C000260909C0C03A84E0D80729F460E485E00D
:1028D00090E00E9426098D818F738D83F801968187
:1028E0008481892B9085992311F098E001C090E0B4
:1028F000892B8D83F801408151816281738100E0D1
:1029000018E428EE31E0CE0199DD9C8198609C832B
:102910009C8190619C83DF91CF911F910F910895CD
:1029200097FB072E16F4009406D077FD08D052D0FE
:1029300007FC05D03EF4909581959F4F08957095C2
:1029400061957F4F0895A1E21A2EAA1BBB1BFD01C2
:102950000DC0AA1FBB1FEE1FFF1FA217B307E4077E
:10296000F50720F0A21BB30BE40BF50B661F771FD6
:10297000881F991F1A9469F76095709580959095B6
:102980009B01AC01BD01CF01089505D0332312F4A2
:102990008A1B9B0B10C0A29FB001B39FC001A39FD5
:1029A000700D811D1124911DB29F700D811D112488
:1029B000911D0895F0DFB7FF0895821B930B0895D2
:1029C000EADFA59F900DB49F900DA49F800D911DEF
:1029D00011240895AA1BBB1B51E107C0AA1FBB1FEE
:1029E000A617B70710F0A61BB70B881F991F5A959B
:1029F000A9F780959095BC01CD0108955058BB274B
:102A0000AA270ED075C166D130F06BD120F031F419
:102A10009F3F11F41EF45BC10EF4E095E7FB51C13A
:102A2000E92F77D180F3BA176207730784079507F8
:102A300018F071F49EF58FC10EF4E0950B2EBA2FAD
:102A4000A02D0B01B90190010C01CA01A0011124B4
:102A5000FF27591B99F0593F50F4503E68F11A1660
:102A6000F040A22F232F342F4427585FF3CF4695F1
:102A700037952795A795F0405395C9F77EF41F1613
:102A8000BA0B620B730B840BBAF09150A1F0FF0FDD
:102A9000BB1F661F771F881FC2F70EC0BA0F621FC9
:102AA000731F841F48F4879577956795B795F795B9
:102AB0009E3F08F0B3CF9395880F08F09927EE0F4B
:102AC000979587950895D9D008F481E008950CD0A2
:102AD0000FC107D140F0FED030F021F45F3F19F074
:102AE000F0C0511139C1F3C014D198F39923C9F33F
:102AF0005523B1F3951B550BBB27AA276217730704
:102B0000840738F09F5F5F4F220F331F441FAA1FB7
:102B1000A9F333D00E2E3AF0E0E830D09150504077
:102B2000E695001CCAF729D0FE2F27D0660F771F25
:102B3000881FBB1F261737074807AB07B0E809F007
:102B4000BB0B802DBF01FF2793585F4F2AF09E3F9C
:102B5000510568F0B6C000C15F3FECF3983EDCF36E
:102B6000869577956795B795F7959F5FC9F7880F15
:102B7000911D9695879597F90895E1E0660F771F67
:102B8000881FBB1F621773078407BA0720F0621BF8
:102B9000730B840BBA0BEE1F88F7E095089504D0F1
:102BA0006894B111D9C00895BCD088F09F5790F0B7
:102BB000B92F9927B751A0F0D1F0660F771F881F62
:102BC000991F1AF0BA95C9F712C0B13081F0C3D07D
:102BD000B1E00895C0C0672F782F8827B85F39F01B
:102BE000B93FCCF3869577956795B395D9F73EF4C1
:102BF00090958095709561957F4F8F4F9F4F089569
:102C0000E89409C097FB3EF4909580957095619586
:102C10007F4F8F4F9F4F9923A9F0F92F96E9BB273C
:102C20009395F695879577956795B795F111F8CFB8
:102C3000FAF4BB0F11F460FF1BC06F5F7F4F8F4F23
:102C40009F4F16C0882311F096E911C0772321F019
:102C50009EE8872F762F05C0662371F096E8862FB1
:102C600070E060E02AF09A95660F771F881FDAF708
:102C7000880F9695879597F90895990F0008550F35
:102C8000AA0BE0E8FEEF16161706E807F907C0F0F2
:102C900012161306E407F50798F0621B730B840BFA
:102CA000950B39F40A2661F0232B242B252B21F4D4
:102CB00008950A2609F4A140A6958FEF811D811D74
:102CC000089597F99F6780E870E060E008959FEFAE
:102CD00080EC089500240A941616170618060906B3
:102CE000089500240A941216130614060506089582
:102CF000092E0394000C11F4882352F0BB0F40F40A
:102D0000BF2B11F460FF04C06F5F7F4F8F4F9F4F49
:102D1000089557FD9058440F551F59F05F3F71F0CB
:102D20004795880F97FB991F61F09F3F79F0879532
:102D30000895121613061406551FF2CF4695F1DFBB
:102D400008C0161617061806991FF1CF869571054B
:102D5000610508940895E894BB2766277727CB017F
:102D600097F908958ADF08F48FEF0895F894FFCF5C
:102D700000000001000000000000540100000000FD
:0C2D8000000200000000710100000000D3
:00000001FF
