S01A0000547572746C655F354B5F494F5F426F6172642E737265636D
S11300000C94F4000C9406010C9406010C94060163
S11300100C9406010C9406010C9406010C94060140
S11300200C9406010C9406010C9406010C94060130
S11300300C9406010C9406010C9406010C94060120
S11300400C9406010C9406010C9406010C94060110
S11300500C9406010C9406010C9406010C94060100
S11300600C9406010C94F9010C9406010C94CC0137
S11300700C9406010C9406010C9406010C940601E0
S11300800C9406010C9406010C9406010C940601D0
S11300900C9406010C9406010C9406010C940601C0
S11300A00C9406010C9406010C9406010C940601B0
S11300B00C9406010C9406010C9406010C94220382
S11300C00C9406010C9406010C9406010C94060190
S11300D00C9406010C9406010C9406010C94060180
S11300E00C9406010C9406010C9406010C94060170
S11300F00C9406010C9406010C9406010C94060160
S11301000C9406010C9406010C9406010C9406014F
S11301100C9406010C9406010C9406010C9406013F
S11301200C9406010C9406010C9406010C9406012F
S11301300C9406010C9406010C9406010C9406011F
S11301400C9406010C9406010C9406010C9406010F
S11301500C9406010C9406010C9406010C940601FF
S11301600C9406010C9406010C9406010C940601EF
S11301700C9406010C9406010C9406010C940601DF
S11301800C9406010C9406010C9406010C940601CF
S11301900C9406010C9406010C9406010C940601BF
S11301A00C9406010C9406010C9406010C940601AF
S11301B00C94CB020C9406010C9406010C940601D9
S11301C00C9406010C9406010C9406010C9406018F
S11301D00C9406010C9406010C9406010C9406017F
S11301E00C9406010C94060111241FBECFEFCDBF61
S11301F0DFE2DEBF20E2A0E0B0E201C01D92A73141
S1130200B207E1F70E9441030C94CD030C94000063
S113021080916002806880936002809163028823E9
S1130220E1F38091680280688093680280916B0298
S11302308823E1F38091700280688093700280913A
S113024073028823E1F380917802806880937802B6
S113025080917B028823E1F3089592E09093CA0190
S1130260E82FF0E084911092CA010895CF93DF93B0
S113027084E20E942D01C0E4D2E08C8785E20E94D2
S11302802D018D87109220061982888181608883D0
S1130290198280E38A8381E08C839FE09E8388A314
S11302A098E099A388A790E199A788AB98E199ABC6
S11302B088AF80E289AF8FE99FE00197F1F700C032
S11302C00000E0E4F2E080A1806880A3DF91CF9198
S11302D00895E0E0F6E08FEF8683828380EFE0E626
S11302E0F6E082830895E0E0F6E080858095089545
S11302F0E0E6F6E080858095807F0895E0E8F6E00A
S11303008FEF86838183E0EAF6E086838183089514
S1130310282F2370982F9C71829586958770990F4A
S1130320990F990F220F922B292F267E9095967E56
S1130330E0E8F6E025839683E0EAF6E08483089516
S1130340A0E4B6E088E011968C931197E0EAF8E017
S113035087ED868383E9878380E3838388E18483CD
S113036083E0858380E111968C93119715968C9385
S11303708AE580930B208DE080931020089580916E
S113038005200895109205200895109201208CE311
S1130390E0EAF8E0838308951F920F920FB60F925C
S11303A011240BB60F928F939F93EF93FF93809139
S11303B00120863050F4E82FF0E0E55FFF4D908196
S11303C09093A0088F5F8093012080910120863054
S11303D028F01092012080E38093A308FF91EF910D
S11303E09F918F910F900BBE0F900FBE0F901F9097
S11303F018951F920F920FB60F9211240BB60F92FD
S11304002F933F934F938F939F93EF93FF93409139
S1130410A008809103208823B1F0242F207F30E0AE
S11304208091022090E02817390749F481E08093F5
S11304300420809100208F5F8093002004C01092DC
S1130440002010920420809104204A3541F4811147
S113045006C01092002081E08093032024C08823EA
S113046011F11092032080910020E82FF0E0EF5E5C
S1130470FF4D40838F5F80930020809116208D3044
S113048051F4109200201092042081E08093052002
S113049080E38093162080910020873020F0109212
S11304A0002010920420FF91EF919F918F914F9122
S11304B03F912F910F900BBE0F900FBE0F901F9086
S11304C01895809112208F700895809113200895BB
S11304D08091142008958091152008959091022010
S11304E0982B90930C20089580930D200895809369
S11304F00E2060930F200895809302200895E0E475
S1130500FAE081E1818380E490E080A791A71382DF
S1130510E0E0FBE0118210A211A281E0848787E071
S113052086831082109208200895909108209111DA
S113053031C0282F30E090910920291B31092093E4
S11305400620309307208093092088E012161306B2
S11305501CF48093850609C0809386063195219505
S11305603109209306203093072080910620909132
S113057007201816190674F48BE197E08093260B74
S11305809093270B86E08093400A8093000B81E0D0
S11305908093082008951F920F920FB60F92112492
S11305A08F939F93809106209091072001978093C9
S11305B00620909307201092400A1092000B10928C
S11305C0200B1092210B1816190664F48BE197E0A6
S11305D08093260B9093270B86E08093400A8093A8
S11305E0000B06C0109208201092062010920720DB
S11305F080E1809386069F918F910F900FBE0F909C
S11306001F901895E0E0FAE0118210A211A281E097
S1130610848783E0868310920A20089590910A20AB
S113062091110FC021E020930A2090E0880F991FB8
S11306308093260A9093270A2093850687E0809367
S1130640000A08951F920F920FB60F9211240BB651
S11306500F928F93EF93FF9381E0E0E8F6E08683B7
S1130660E0E0FAE0108210A211A210920A20FF9199
S1130670EF918F910F900BBE0F900FBE0F901F90B4
S1130680189582E08093860681E0809386068BEC41
S11306908093520080915000886080935000809134
S11306A0510083FFFCCFC8EDC4BF83E080934000BA
S11306B0C4BF109241000E94BF030E94A0010E9487
S11306C036010E947E010E9469010E9402030E9479
S11306D078010E947C0290E08FE108B618BEC4BF86
S11306E0809380009091820091FDFCCF08BE87E04A
S11306F08093A20078940E947F02A8950E94BF0173
S11307008823D1F10E946102C82F0E9473010E94C4
S113071074020E9465020E948801C23091F038F48C
S1130720C13029F50E946B020E9495020EC0C330AD
S113073071F0C430E1F40E946B020E94950283E0E0
S113074014C00E9468020E940E0381E00EC00E9441
S11307506B020E94950282E00E946E026091500238
S1130760809151020E94770202C00E946E020E9490
S1130770C2010E94C501C1CF0E940801BECF88E01A
S113078080936006E0EAF9E08CE0868317821382A6
S111079088E1848383E085830895F894FFCF85
S9030000FC
