:100000000C9428010C943A010C943A010C943A0196
:100010000C943A010C943A010C943A010C943A0174
:100020000C943A010C943A010C943A010C943A0164
:100030000C943A010C943A010C943A010C943A0154
:100040000C943A010C943A010C943A010C943A0144
:100050000C943A010C943A010C943A010C943A0134
:100060000C943A010C94D9020C943A010C94A0021D
:100070000C943A010C943A010C943A010C943A0114
:100080000C943A010C943A010C943A010C943A0104
:100090000C943A010C943A010C943A010C943A01F4
:1000A0000C943A010C943A010C943A010C943A01E4
:1000B0000C943A010C943A010C943A010C944C04BF
:1000C0000C943A010C943A010C943A010C943A01C4
:1000D0000C943A010C943A010C943A010C943A01B4
:1000E0000C943A010C943A010C943A010C943A01A4
:1000F0000C943A010C943A010C943A010C943A0194
:100100000C943A010C943A010C943A010C943A0183
:100110000C943A010C943A010C943A010C943A0173
:100120000C943A010C943A010C943A010C943A0163
:100130000C943A010C943A010C943A010C943A0153
:100140000C943A010C943A010C943A010C943A0143
:100150000C943A010C943A010C943A010C943A0133
:100160000C9410050C943A050C943A010C943A0145
:100170000C943A010C943A010C943A010C943A0113
:100180000C943A010C943A010C943A010C943A0103
:100190000C943A010C943A010C943A010C943A01F3
:1001A0000C943A010C943A010C943A010C943A01E3
:1001B0000C94E9030C943A010C943A010C943A0122
:1001C0000C943A010C943A010C943A010C943A01C3
:1001D0000C943A010C943A010C943A010C943A01B3
:1001E0000C943A010C943A01D604DB04E004E904CF
:1001F000F204FB040B050605BD05D605F4050D0646
:10020000250725072507250725072507250725078E
:10021000250725072507250725072507DF062507C5
:1002200025075406C2062507970626062507F60663
:100230002507250725073C06250725077E06AC066A
:100240000C072507250725072507250725078C0502
:1002500011241FBECFEFCDBFDFE2DEBF20E2A0E062
:10026000B0E201C01D92AA3AB207E1F70E947E04F3
:100270000C9446080C940000CF93DF9382E08093A7
:10028000CA01E0E2F0E0E491AAECB1E01C92C0E027
:10029000D2E0EC878C93E1E2F0E0E4911092CA01A5
:1002A000A0E0B2E01D96EC931D9710920006119607
:1002B0001C9211978C9181608C9311961C921197CE
:1002C00090E212969C93129781E014968C93149767
:1002D0002FE016962C93169790968C93909728E083
:1002E00091962C93919798968C93989720E1999654
:1002F0002C939997D0968C93D09728E1D1962C93F4
:10030000D197D8968C93D897D9969C938FE19EE4F9
:100310000197F1F700C00000E0E0F2E080A1806802
:1003200080A380A5806880A780A9806880AB80AD0D
:10033000806880AFDF91CF91089580912302882358
:1003400081F080911002909111028093002090938F
:10035000012081E0809323028091200280688093B5
:10036000200280912B02882381F0809112029091CB
:100370001302809302209093032081E080932B024C
:10038000809128028068809328028091330288231C
:1003900081F0809114029091150280930420909333
:1003A000052081E080933302809130028068809341
:1003B000300280913B02882381F080911602909157
:1003C0001702809306209093072081E080933B02E0
:1003D000809138028068809338020895E82FF0E019
:1003E000EE0FFF1FE050F04E80819181FB01908362
:1003F00081830895E0E0F6E080EE86838283E0E288
:10040000F6E086838283E0E6F6E083EF86838283EC
:10041000E0E8F6E084E0868382830895E0E0F6E099
:100420009085E0E2F6E08085E0E6F6E02085807EDB
:1004300086958695237F40E4249F90011124822B8A
:10044000929596959770892B80950895E0E6F6E051
:1004500080858095807F0895E0E8F6E0808582FBC6
:10046000882780F90895E0E8F6E08FEF86839BEF18
:100470009183E0EAF6E0868381830895CF93C82FC5
:100480000E942C02811114C02C2F22952F709C2FBA
:100490009E70C170CC0F9295907F9C2B892F809578
:1004A000827E90938506809386062093A40606C0DC
:1004B0008BEF809386068FEF8093A606CF910895E9
:1004C0008BEFE0E8F6E086838FEFE0EAF6E08683E4
:1004D0000895A0E4B6E088E011968C931197E0EAC5
:1004E000F8E087ED868383E9878380E3838388E16F
:1004F000848383E0858380E111968C931197159610
:100500008C9308959091A10895FFFCCF8093A0084B
:10051000089580910D20089510920D200895EEE920
:10052000F0E28AE580838DE08093A32080810E94A1
:1005300082028CE3E0EAF8E08383109209200895B8
:100540001F920F920FB60F9211240BB60F922F939A
:100550003F934F935F936F937F938F939F93AF934B
:10056000BF93EF93FF93E0910920EF5FE0930920A1
:10057000E53028F4F0E0E256FF4D808105C080E3CD
:100580008093A3088091A3200E948202FF91EF91A3
:10059000BF91AF919F918F917F916F915F914F919B
:1005A0003F912F910F900BBE0F900FBE0F901F9099
:1005B00018951F920F920FB60F9211240BB60F923F
:1005C0002F933F934F938F939F93EF93FF9340917C
:1005D000A00880910B208823B1F0242F207F30E0E9
:1005E00080910A2090E02817390749F481E0809330
:1005F0000C20809108208F5F8093082004C0109207
:10060000082010920C2080910C204A3541F4811171
:1006100006C01092082081E080930B2024C088231C
:1006200011F110920B2080910820E82FF0E0EC559A
:10063000FF4D40838F5F809308208091A9208D30EB
:1006400051F41092082010920C2081E080930D202C
:1006500080E38093A92080910820873020F01092B9
:10066000082010920C20FF91EF919F918F914F9154
:100670003F912F910F900BBE0F900FBE0F901F90C8
:1006800018958091A5208F7008958091A6200895D7
:100690008091A72008958091A820089590910A2024
:1006A000982B90939F2008958093A0200895809385
:1006B000A1206093A220089580930A200895E0E489
:1006C000FAE081E1818380E490E080A791A7138222
:1006D000E0E0FBE0118210A211A281E0848787E0B4
:1006E000868310821092102008951092400A109272
:1006F000000B1092102008951F93CF93DF930E9458
:100700002C0281111AC088E080938606CBE1D7E0E5
:1007100016E00E940E0280FD09C0C093260BD09304
:10072000270B1093400A1093000BF3CF88E08093BF
:10073000850610920E2010920F20DF91CF911F910D
:100740000895CF93C82F80911020811135C00E9449
:100750002C02811131C02C2F30E080911120281BF8
:10076000310920930E2030930F20C093112088E090
:10077000121613061CF48093850609C08093860622
:1007800031952195310920930E2030930F208091CF
:100790000E2090910F201816190674F48BE197E043
:1007A0008093260B9093270B86E08093400A8093DA
:1007B000000B81E080931020CF910895E0E0FBE0F2
:1007C0008BE197E086A397A386E08093400A80831D
:1007D00008951F920F920FB60F9211248F939F933B
:1007E00080910E2090910F20019780930E2090937E
:1007F0000F201092400A1092000B1092200B1092C2
:10080000210B1816190664F48BE197E08093260BF0
:100810009093270B86E08093400A8093000B06C0DC
:100820001092102010920E2010920F2080E18093E1
:1008300086069F918F910F900FBE0F901F90189575
:10084000E0E0FAE0118210A211A281E0848783E047
:10085000868310921220089581E0E0E8F6E0868316
:100860001092000A10921220089590911220911176
:100870000FC021E02093122090E0880F991F8093F1
:10088000260A9093270A2093850687E08093000A22
:1008900008958091122008951F920F920FB60F9223
:1008A00011240BB60F928F93EF93FF9381E0E0E852
:1008B000F6E08683E0E0FAE0108210A211A2109226
:1008C0001220FF91EF918F910F900BBE0F900FBEF2
:1008D0000F901F901895CF93DF9300D0CDB7DEB760
:1008E000BE016F5F7F4F0E94EE016A8189810E9485
:1008F00057030F900F90DF91CF91089580E280937E
:10090000860681E0809386068BEC8093520080916E
:1009100050008860809350008091510083FFFCCF8D
:1009200088ED84BF93E09093400084BF1092410013
:100930000E9435070E9469020E943C010E94330216
:100940000E94FA010E9420040E9426020E945C0379
:1009500087E08093A20078940E945F030E942C029B
:10096000882331F00E9460020E9475030E942C04CB
:100970000E949D010E945E070E948902882371F3F4
:100980000E944103C82F0E940E020E9454030E943D
:1009900045030E943E028C2F90E0FC013197E83025
:1009A000F105C8F5EC50FF4F0C940B080E944B0367
:1009B0000E94A1032DC00E9448030E94350428C054
:1009C0000E944B030E94A10382E00E944E0380E03C
:1009D0001AC00E944B030E94A10383E00E944E03B1
:1009E00081E011C00E944B030E94A10384E00E9499
:1009F0004E0382E008C00E944B030E94A10385E0E1
:100A00000E944E0383E00E946B0405C00E947C0399
:100A100081E00E944E030E948C020E948F029ECFB2
:100A20001F920F920FB60F9211240BB60F922F93B5
:100A30003F934F935F936F937F938F939F93AF9366
:100A4000BF93EF93FF9383E590E20E94C907FF9164
:100A5000EF91BF91AF919F918F917F916F915F9136
:100A60004F913F912F910F900BBE0F900FBE0F90A3
:100A70001F9018951F920F920FB60F9211240BB66C
:100A80000F922F933F934F935F936F937F938F9327
:100A90009F93AF93BF93EF93FF9383E590E20E9400
:100AA000E807FF91EF91BF91AF919F918F917F9157
:100AB0006F915F914F913F912F910F900BBE0F90CF
:100AC0000FBE0F901F901895CF93DF93EC016881B4
:100AD000662341F083E590E20E9486078823B9F3FC
:100AE0002196F5CF6AE083E590E20E94860788238D
:100AF000C9F3DF91CF910895CF93DF9300D0CDB7A5
:100B0000DEB790E0FC01F097EC32F10508F09DC1F2
:100B1000E450FF4F0C940B0889E4809313209FE46A
:100B20009093142080E28093152022E420931620D5
:100B30009093172091E49093182092E590931920B8
:100B400094E490931A2080931B2086E580931C20C8
:100B500080E380931D2081E380931E208EE28093AA
:100B60001F2082E38093202083E3809321208AE06A
:100B700080932220109223206FC1BE016F5F7F4FB0
:100B800080E00E94EE01898190E0982F88272A81D9
:100B90004AE067E170E2822B0E94110883E48093AF
:100BA000132088E48093142080E318C0BE016F5F97
:100BB0007F4F81E00E94EE01898190E0982F882785
:100BC0002A814AE067E170E2822B0E94110883E4E7
:100BD0008093132088E48093142081E38093152070
:100BE00080E28093162038C1BE016F5F7F4F82E0A4
:100BF0000E94EE01898190E0982F88272A814AE09F
:100C000067E170E2822B0E94110883E48093132035
:100C100088E48093142082E3E1CFBE016F5F7F4FB1
:100C200083E00E94EE01898190E0982F88272A8135
:100C30004AE067E170E2822B0E94110883E480930E
:100C4000132088E48093142083E3C8CF8BEF809334
:100C500085068FEF8093A50681E4809313208CE4B2
:100C6000809314208093152080E2809316208FE4D7
:100C7000809317208EE43DC08BEF809386068FEF24
:100C80008093A60681E4809313208CE48093142043
:100C90008093152080E2809316208FE480931720A4
:100CA00086E4809318203EC00E942C02882391F095
:100CB00085E4809313208DE48093142080E2809358
:100CC00015208FE4809316208EE4809317201092D5
:100CD0001820C2C085E4809313208DE480931420F3
:100CE00080E2809315208FE48093162086E4809321
:100CF00017208093182010921920AEC00E940E0277
:100D000099E4909313209EE49093142090E590939F
:100D1000152095E59093162094E59093172090E286
:100D2000909318208093192010921A2095C00E9449
:100D30007C0387E4809313208FE48093142090E257
:100D40009093152098E490931620809317208DE4BB
:100D50008093182085E4E6CF0E94DE0384E480932C
:100D600013208FE48093142080E28093152083E584
:100D70008093162084E58093172085E480931820C3
:100D800080E5D0CF88E08093850683E580931320AB
:100D900084E58093142085E48093152080E580937A
:100DA000162080E28093172083E48093182080939C
:100DB000192087E580931A2010921B204DC088E0EF
:100DC0008093860683E58093132084E58093142026
:100DD00085E48093152080E58093162080E280933F
:100DE000172083E48093182087E59CCF0E94490454
:100DF0008111FCCF8AE70E94350486E4809313209A
:100E000089E48093142082E58093152085E4809303
:100E100016201092172020C080E2809387069091C0
:100E2000880695FF07C09FE4909313209EE490935B
:100E3000142006C08FE48093132086E4809314204E
:100E4000809315201092162007C08FE38093132003
:100E5000809314201092152083E190E20E94640593
:100E60000F900F90DF91CF910895E0E6F6E088E0D3
:100E7000818384E0828341E060EA79E083E590E267
:100E80000E946B07E0915320F091542083E085830A
:100E900083818F7C80618383A0EAB9E087ED169619
:100EA0008C93169783E917968C9384818061848351
:100EB0008481886084838BE50C947C0583E590E2D3
:100EC0000E94B007882331F083E590E20E94BB07BF
:100ED0000C947C050895FC01608371834283E85B78
:100EE000FF4F108231971082339610823197108213
:100EF0000895FC01E75BFF4F2081319690812F5FC1
:100F00002F7381E0291301C080E008950F931F9390
:100F1000CF93DF931F92CDB7DEB78C0169830E9418
:100F2000790769818823B1F0F801E75BFF4F908171
:100F3000D801A90FB11D17966C939F5F9F73908383
:100F4000D801ED91FC91119793819C7F12962C9181
:100F5000922B93830F90DF91CF911F910F91089562
:100F6000FC01E95BFF4F20813196908181E02913DC
:100F700001C080E00895FC01E85BFF4F2081DC01A7
:100F8000A20FB11D13968C9190819F5F93709083F7
:100F90000895CF93DF93FC01E95BFF4F20812F5F22
:100FA0002370DC01A85BBF4F4C91EC01A881B98193
:100FB0003C91241749F04081DC01A40FB11D139628
:100FC0003C93208381E001C080E0DF91CF910895C0
:100FD000CF93DF93FC01E65BFF4F2081DC01A75B31
:100FE000BF4F3C91EC01A881B981321307C0139621
:100FF0008C9113978C7F13968C930AC02081EC01FF
:10100000C20FD11D8F818C9380818F5F8F738083FE
:10101000DF91CF910895EE0FFF1F0590F491E02D21
:101020000994BB274A3031F4992322F4BDE290950C
:1010300081959F4F0C941D08BB27FB015527AA27BC
:10104000880F991FAA1FA41710F0A41B8395505155
:10105000B9F7A05DAA3308F0A95DA193009779F7CD
:10106000B111B1931192CB010C943608DC01FC0153
:10107000672F71917723E1F7329704C07C916D93CC
:1010800070836291AE17BF07C8F30895F894FFCF3D
:00000001FF
